:10C00000002B0010B1E90000A5E900009D06010029
:10C01000A9E90000A9E90000A9E90000000000006A
:10C02000000000000000000000000000ADE900007A
:10C03000ADE9000000000000ADE90000ADE900003E
:10C04000ADE90000ADE90000ADE90000ADE9000098
:10C05000ADE90000ADE90000ADE90000ADE9000088
:10C06000ADE90000ADE90000ADE90000ADE9000078
:10C07000ADE90000ADE900004DD10000A9E50000E8
:10C0800079E60000ADE90000ADE90000ADE900008F
:10C09000ADE90000ADE90000ADE90000ADE9000048
:10C0A000ADE90000ADE90000ADE90000ADE9000038
:10C0B000ADE90000ADE90000ADE90000ADE9000028
:10C0C0000000000000000000000000000000000070
:10C0D0000000000000000000000000000000000060
:10C0E0000000000000000000000000000000000050
:10C0F0000000000000000000000000000000000040
:10C1000003685A004CBF43F0004323F00043184437
:10C11000704700BF2DE9F84329B34F1E044615466A
:10C120003E464FF0000808EB060101EBD1714910C3
:10C1300004EBC1094846FFF7E3FF0346C800083097
:10C140008F42204409D0AB4209D8FFF7D9FF01380C
:10C15000A8420AD201F10108E5E7AB4205D98845BA
:10C1600001D04E1EDFE74FF000094846BDE8F883D6
:10C17000012807D0022807D0044B00280CBF18461E
:10C1800000207047024870470248704749C80000C5
:10C190004DC8000051C8000030B5234B83B00446A1
:10C1A0008D1E3BB301A92846AFF30080E8B1019989
:10C1B0002A46FFF7AFFF0146B8B1FFF7A1FF4B6872
:10C1C000A064012B2CD0002B01F1040024DBFFF72D
:10C1D00097FF0023C4E913030368002B11DBFFF76B
:10C1E0008FFF2061002003B030BD002309202361B0
:10C1F00003B030BD0D4B0E49C91AC9101846019144
:10C20000D6E7C3F30360FFF7B3FF0028206114BF34
:10C210000020092003B030BD0123C4E91303DBE78C
:10C22000002323610520DEE700000000A45E00106B
:10C23000BC6100100368DA0710B5044606D49B07FA
:10C2400000F1480009D500F05BFC2368590709D5C7
:10C250001A070ED5DB0613D510BD00F049FC236884
:10C260005907F5D404F1D00000F052FC23681A07F6
:10C27000F0D404F5A87000F053FC2368DB06EBD47F
:10C2800004F5E870BDE8104000F08EBC092070474E
:10C290000346006800B11844704700BF704700BFF4
:10C2A00070B504460E46316C2046FFF775FF054613
:10C2B00088B9326C62612369324621460120984771
:10C2C0000828F0D0072806D12846316CFFF7E6FF92
:10C2D000301D00F001FC05F067FC00BF2DE9F047C0
:10C2E0000D1DD0F80C80D0F81890074614460FCDDD
:10C2F000ADF5727D0DF10C0CACE80F000FCDACE884
:10C300000F000FCDACE80F0095E80F0002AE4FF024
:10C31000000E8CE80F00C6F800E020E0336C7B6173
:10C320004FF4F07231467AA805F055FC3B697AAAC1
:10C33000394650469847889B73642146CDE9006989
:10C3400005463B463A460120C0470446E0B94FF453
:10C35000F0727AA9304605F03EFC082D1AD1316CF6
:10C360003846FFF719FF09345FFA84FA05460028BA
:10C37000D4D0B36B73643A46CDE900693B464AF0CA
:10C3800010010120C04700B1092528460DF5727D36
:10C39000BDE8F087072DF7D12046316CFFF77EFF0F
:10C3A00003A800F099FB00BF406C7047F0B5CB6B61
:10C3B0000B6401F1040C0E460546BCE80F00F9B011
:10C3C00001AC0FC4BCE80F000FC4BCE80F000FC4E1
:10C3D0009CE80F004FF0FF3784E80F00009706E05D
:10C3E0002B696A46294698470828044608D11099BF
:10C3F0002846FFF7D1FE0028F2D0092079B0F0BD21
:10C400006846FFF717FF062CF7D131462846FFF79D
:10C4100047FF00BFC160D96B8261196400221946D1
:10C420005CE700BF70B5C66843690B64AEB90369C9
:10C430000A4604460D46014602209847072805D0C3
:10C4400008280FD129462046FFF72AFF3046296CDD
:10C45000FFF724FF281D00F03FFB0122FFF73EFFFE
:10C4600005F0A2FB05F0A0FBC2681AB1CA6B0A6412
:10C47000002233E79AE700BF704700BF8368014698
:10C480000BB1012018477047012912D009D873B9A0
:10C490000F2A0CD800EB820218465368009A1360EA
:10C4A00070470339012994BF012002207047022000
:10C4B00070470846704700BF00B585B00A460023A4
:10C4C00003A900911946FFF7DFFF039805B05DF857
:10C4D00004FB00BF012912D009D873B90F2A0CD868
:10C4E00000EB8200009A12684260184670470339D8
:10C4F000012994BF0120022070470220704708469E
:10C50000704700BF10B584B0002303AC03920094C1
:10C510000A461946FFF7DEFF04B010BD70B5D36BB5
:10C52000136402F1040C05460C46BCE80F00ADF59F
:10C530000E7D0DF15C0EAEE80F00BCE80F00AEE81A
:10C540000F00BCE80F00AEE80F009CE80F004FF0B2
:10C55000FF368EE80F00169610E0FFF7D3FF214656
:10C5600016A8A847034616AA6946082083B9049B63
:10C570009847052806460CD0092809D02699684610
:10C58000FFF70AFE03466A460C2116A8002BE4D0EA
:10C59000092616A8FFF74EFE30460DF50E7D70BD3C
:10C5A0002DE9F04FCC6C89B01E4654F8043B06943C
:10C5B0000D46174600F00308002E79D01A0C1B0414
:10C5C00005938DF81D200223D2B204EB82048DF86E
:10C5D0001C302B6DB8F1020F08BFAC6B13F00103D8
:10C5E0000CD005A9384600F079FB18B9082009B02D
:10C5F000BDE8F08F092009B0BDE8F08FD4F800A0A5
:10C60000BAF1000FEDD0019300F008030293022E5F
:10C610004AD0B4F800A0B4F802900434AB6C29F00E
:10C62000010B0F2138469B44FFF746FF834539D85D
:10C630002AF001039B44834594BF002001204FEA68
:10C64000490303F002030AF0010A43EA0A03012B3B
:10C6500049D0022B32D0002BCCD1B8F1000F02D040
:10C66000002840F0CD800434D4F800A0BAF1000FC7
:10C67000CDD105A9384600F031FB0028BAD1019B85
:10C68000002BB3D00F213846FFF716FF0E210246CC
:10C690003846FFF737FF38466A4A0F21FFF732FF67
:10C6A0000720A8E70020CAE7D4F804900834B5E7CB
:10C6B0001B0205930323ADF81C308AE7236823F09F
:10C6C000004BB8F1000F45D128B1029A002A5CD086
:10C6D000BBF1000F74D0002B00DA04340BF1010B16
:10C6E00004EB8B04C0E7B8F1000F19D1B0B1636857
:10C6F0002268991C4FEAD2723FF47CAF05F15801D1
:10C700000133049100F09080201DFFF7C1FD04ABC0
:10C7100001462846AFF3008000285BD10834A3E728
:10C720000D213846D5F82090FFF7C6FE8145F5D19A
:10C73000AB6A9C42F2D12046FFF7E2FC0F21024691
:10C740003846FFF7DFFE38462A460021FFF7DAFEBB
:10C75000072050E70D213846D5F82090FFF7ACFEB2
:10C76000814501D02368B6E7AB6A9C42FAD1042325
:10C770000022C5E90B23E318C5F828B06B632368D2
:10C78000002B59DB01230193A8E705F15803CDF8ED
:10C790000C8004F1040AB04691461E460EE0504655
:10C7A0000496FFF775FD0022014604AB284609F107
:10C7B00001090AF1040AAFF30080E0B9D945EED1CE
:10C7C0000D213846FFF778FE049BAC62C5E90803EB
:10C7D000062010E781460D213846FFF76DFEB9F1BE
:10C7E000020F286225D12B46049A43F82C2F6B6246
:10C7F000AC620620FFE646462368DDF80C806AE757
:10C800002046FFF77DFC04340246AC6328461446FC
:10C81000AFF3008000283FF4EDAE384622460F21EA
:10C82000FFF770FE0720E6E60D213846FFF744FECD
:10C830002862049B6B62DBE70BF1010004EB8000D4
:10C840007AE700BF000000000023A9E60123A7E665
:10C850000223A5E62DE9F0430646C3B015461C4663
:10C86000042900F2BF80DFE801F09E57BD2D0300D0
:10C87000002C40F0B780102A00F2B4800368D8067C
:10C8800000F1F98020AF384600F098F9B46B3946D2
:10C8900000234FF0010C0CFA03F22A42204603F168
:10C8A000010303D050F8042B0A600446042B01F165
:10C8B0000401F0D13846B46300F076F9002043B0AB
:10C8C000BDE8F083032C40F08D8094B204EB12435A
:10C8D000102B4FEA124500F2858003681F0700F114
:10C8E000D28020AF384600F03DF9B26B07EBC501AE
:10C8F00054B10B46D01A01EBC401E4001D5843F8B3
:10C90000045B8B42FAD122443846B26300F008F946
:10C91000002043B0BDE8F083012C4FEA124895B2E5
:10C920005CD0052C5ED108EB0509B9F1200F59D870
:10C93000B8F10F0F79D9A946002D40F08A80B36B6A
:10C940006DB320AF4FF0000907EBC807043F03EBBE
:10C95000C50553F8041B47F8041FAB42F9D1B9F1E0
:10C96000000F0FD06F464146102938BF102107EB4A
:10C97000C101843903EBC90553F8040B41F8040FD6
:10C98000AB42F9D1012C00F08680B8F10F0FB563EE
:10C9900047D9B9F1000F02D0684600F0B9F800207D
:10C9A00043B0BDE8F083ECB9806B23461FFA82FCEC
:10C9B0000124371D04FA03F212EA0C0F014604D0D9
:10C9C00051F8042B47F8232008460133102BF1D1EE
:10C9D00015F40055E3D1B063284604E008EB0503E5
:10C9E000102B03D9022043B0BDE8F083B8F10F0F3C
:10C9F000F8D83368DA0706D5304623F0030340F849
:10CA0000483B00F079F820AF384600F075F8B36B7A
:10CA1000002D97D11D460435B563384600F068F8FF
:10CA2000BDE720A800F06CF8B3E7B9F1100F40D9CA
:10CA3000A9F110093368D90708D523F0010330465E
:10CA400043F0020340F8483B00F05EF8B9F1000FF4
:10CA500032D033685A0720D4B8F10F0F25D96F466A
:10CA60003846C8F1100500F057F8002DB36B7FF77A
:10CA70007AAF20AF68E723F01003336006F5E87063
:10CA800000F09CF8FEE623F00803036000F5A870B0
:10CA900000F068F825E720AFBDE7304623F0040337
:10CAA00040F8D03B00F038F8D6E720A800F02CF88A
:10CAB000D5E74FF00009BDE7B8F10F0F3FF63FAFE4
:10CAC00020AF384600F020F8B36B002D7FF43AAF6A
:10CAD000384600F015F862E700F1340191E83800BB
:10CAE0009C46A6464CF8045D90E8FF0FE54600BD65
:10CAF00090EC210B704700BF80EC210B704700BF0A
:10CB000090EC200B704700BF80EC200B704700BFFB
:10CB1000D0EC200B704700BFC0EC200B704700BF6B
:10CB2000F0EC0201F0EC0211F0EC0221F0EC023129
:10CB3000F0EC0241F0EC0251F0EC0261F0EC027119
:10CB4000F0EC0281F0EC0291F0EC02A1F0EC02B109
:10CB5000F0EC02C1F0EC02D1F0EC02E1F0EC02F1F9
:10CB6000704700BFE0EC0201E0EC0211E0EC0221B2
:10CB7000E0EC0231E0EC0241E0EC0251E0EC026159
:10CB8000E0EC0271E0EC0281E0EC0291E0EC02A149
:10CB9000E0EC02B1E0EC02C1E0EC02D1E0EC02E139
:10CBA000E0EC02F1704700BFB0FC0181B0FC0191E4
:10CBB000B0FC01A1B0FC01B1704700BFA0FC018135
:10CBC000A0FC0191A0FC01A1A0FC01B1704700BF35
:10CBD000EC4600B52DE900502DE9FF1F4FF0000392
:10CBE0002DE90C0001A9FFF7E1FBDDF840E012B0F0
:10CBF000704700BFEC4600B52DE900502DE9FF1F3E
:10CC00004FF000032DE90C0001A9FFF70BFCDDF844
:10CC100040E012B0704700BFEC4600B52DE900506F
:10CC20002DE9FF1F4FF000032DE90C0001A9FFF7CC
:10CC30001BFCDDF840E012B0704700BFEC4600B5C9
:10CC40002DE900502DE9FF1F4FF000032DE90C00E6
:10CC500001ABFFF7DFFBDDF840E012B0704700BF2B
:10CC6000EC4600B52DE900502DE9FF1F4FF0000301
:10CC70002DE90C0001AAFFF751FCDDF840E012B0ED
:10CC8000704700BF027A03467AB9427AA2B141687E
:10CC9000013A10B44272086803220C1D1A72020293
:10CCA0005C60000E10BC1A6070470068013A1A728E
:10CCB00002021A60000E7047B020704700B585B0C0
:10CCC000002303AA009219460C22FFF7DDFB03980C
:10CCD00005B05DF804FB00BFF0E700BF2DE9F043AD
:10CCE000054685B00E464FF000083046FFF7CAFFF4
:10CCF000B028044600F0BA80070620D500F0F00303
:10CD0000802B4DD0902B36D0A02B60D0B02B74D080
:10CD1000C02B00F08B8000F0F803D02B0BD100F07B
:10CD200007020132052342F4002201212846FFF7C1
:10CD300091FD0028D9D0092005B0BDE8F08383001B
:10CD4000DBB21F1D0DF10C0900231946CDF8009030
:10CD50000D222846FFF798FB039BCDF80090600654
:10CD60004CBFDF1BFF1800230D22194628460397EE
:10CD7000FFF7B0FBB9E700F00D030D2BDBD003AFDD
:10CD8000002300F00F02194600972846FFF77CFBAE
:10CD9000002300970D2219462846FFF79BFBA4E7C6
:10CDA0003046FFF76FFF24022043B0F5004FC2D09A
:10CDB00004010023A2B219462846FFF74BFD0028C4
:10CDC000B9D114F4004F18BF4FF001088DE7C243EA
:10CDD00002F007034FF47F621A41010702F47F62F9
:10CDE0004FF0000348BF42F4804219462846FFF73F
:10CDF00031FD00283FF479AF9DE7B1283BD0B22840
:10CE000000F09380B32841D000F0FC03B42B92D003
:10CE100000F007020132012342F40022194628469D
:10CE2000FFF718FD00283FF460AF84E7C6284AD01A
:10CE3000C72854D000F0F803C02B63D0C82868D0AE
:10CE4000C9287FF478AF3046FFF71CFF020300F0DB
:10CE50000F0002F47022013002430121052328460D
:10CE6000FFF7F8FC00283FF440AF64E7B8F1000F8B
:10CE700018D0002060E73046FFF704FF0246002884
:10CE80003FF459AF10F0F003C8D054E73046FFF735
:10CE9000F9FE020300F00F03013302F470221A437B
:10CEA0000123BBE703AC43460E22414600942846CB
:10CEB000FFF7EAFA009443460F2241462846FFF75F
:10CEC00009FB404638E73046FFF7DCFE020300F07E
:10CED0000F03013302F470221A4303239EE7304606
:10CEE000FFF7D0FE024600283FF425AF10F0F00314
:10CEF0007FF421AF04212846FFF7ACFC00283FF463
:10CF0000F4AE18E700F00F020132032342F42022AE
:10CF100084E73046FFF7B6FE00F0F00200F00F03A2
:10CF20001032013343EA023297E700230DF10C0976
:10CF30000D221946CDF800902846FFF7A5FA304695
:10CF4000FFF7A0FE02064FF002040CD5039B00F091
:10CF50007F00A040184403903046FFF793FE03067D
:10CF600004F10704F2D4039BCDF8009000F07F0297
:10CF7000A24003F501731A440023039219460D22BF
:10CF80002846FFF7A7FAB0E610B5C26C536884B024
:10CF90004FF0030C08321C0208461B0E01A9019435
:10CFA00002928DF80CC08DF80D30FFF797FE04B09B
:10CFB00010BD00BF08B5FFF78FFE806C08BD00BF35
:10CFC00008B5FFF789FEC06CC379023300EB83001C
:10CFD00008BD00BF034613F8012B002AFBD1181A25
:10CFE0000138704700000000000000000000000051
:10CFF00001F0FF01102A2BDB10F0070F08D010F80A
:10D00000013B013A8B422DD010F0070F42B3F6D10D
:10D01000F0B441EA012141EA014122F007047FF026
:10D0200000070023F0E80256083C85EA010586EA7D
:10D03000010685FA47F5A3FA87F586FA47F6A5FAB9
:10D0400087F68EB9EED1F0BC01F0FF0102F00702C5
:10D0500032B110F8013B013A83EA010313B1F8D170
:10D060000020704701387047002D06BF3546033851
:10D07000073815F0010F07D1013015F4807F02BF8A
:10D08000013015F4C03F0130F0BC0138704700BFDB
:10D0900008B54FF0FF31032002F086F8014B012262
:10D0A0001A7008BD202E00100FB400B5ADF5037D39
:10D0B00085AA0A49019202A804F018FE02A8FFF707
:10D0C00089FF0023024602A9184601F0FFFB0DF577
:10D0D000037D5DF804EB04B0704700BF44250100F8
:10D0E0000FB400B5ADF5037D85AA0A49019202A8E7
:10D0F00004F0FCFD02A8FFF76DFF0023024602A921
:10D10000184601F0E3FB0DF5037D5DF804EB04B078
:10D11000704700BF742501000FB400B5ADF5037D65
:10D1200084AA02A852F8041B019204F0DFFD02A8B1
:10D13000FFF750FF0023024602A9184601F0C6FB84
:10D140000DF5037D5DF804EB04B0704710B50020C9
:10D1500002F0BEF8044602F0A9F82046BDE81040EF
:10D1600001F0BCBE30B5424A424B12684FF4A034C5
:10D170001278D4E900101A701B78AB2B89B015D047
:10D18000B1F1805F0AD33C4A136A03F180538B42AA
:10D1900004D9A04202D3D369834209D8374B009304
:10D1A000374A3849F923002003F0B6FE09B030BDF4
:10D1B000354D334A0095CDE90110FE233149334DF9
:10D1C000002003F0A9FE0A2003F054FA30482C4A4C
:10D1D0002C49009040F20113002003F09DFE0A202C
:10D1E00003F048FA4FF4807002F054FD4FF48003CE
:10D1F000C5F88030BFF34F8FBFF36F8F4FF04040C3
:10D2000002F03EFD002002F03BFD402002F038F825
:10D210004FF48043C5F88030BFF34F8FBFF36F8F5B
:10D220000022002300254FF0FF310320CDE9042325
:10D23000069501F0A3FF4FF0FF31032001F0B4FF8A
:10D2400004A9032001F02EFF02F02AFA284601F07B
:10D2500089FA02F025FA4FF400514FF47E2000F0D5
:10D2600089FB204609B0BDE8304002F0BDBC00BFDC
:10D27000002B0010E82D0010EC2D0010C02501003F
:10D2800088250100B8250100D425010000E100E057
:10D29000002601002DE9F0476E4D6F4C6F4E704F28
:10D2A00084B006E00A2A22D03378B046002B40F042
:10D2B000CE80002001F066FB00284ADD0023012219
:10D2C0000DF10F01184601F04DFB2A889DF80F1053
:10D2D000A154531C9BB23F2B2B8089BF002303F129
:10D2E000FF332B804FF0FF33E25C0D2ADAD1218827
:10D2F00047F26142914207D0218845F24142914272
:10D300002AD000232B80CFE7A2782B2AF4D1012248
:10D31000B04632704FF000093946204604F80390B9
:10D3200004F0B4FC20B14F49204604F0AFFCB8B97A
:10D330004D494E48FFF7F0FE00214022204688F874
:10D340000010298004F055FC002001F01BFB002890
:10D35000B4DC04B0BDE8F087A2782B2AD1D1D6E79F
:10D360004349204604F092FC0028E1D04149204680
:10D3700004F08CFC8246F8B13F49204604F086FC5C
:10D380008246002838D03D49204604F07FFC002822
:10D3900050D03B49204604F079FC8246F8B9394820
:10D3A000FFF7BAFE384B0093384A3949504640F2ED
:10D3B000E62303F0B1FDBFE73648FFF7ADFE364B7D
:10D3C000324A3349009350464FF4337303F0A4FDBF
:10D3D000642003F04FF9314B01221A70ACE730485A
:10D3E000FFF79AFE2F4B0093284A2949484640F2FE
:10D3F000EB2303F091FD9FE72B48FFF771FE2B4BCA
:10D40000224A23490093504640F2D62303F084FD7C
:10D41000FFF7A8FE214B264883F800A0FFF744FE43
:10D42000244B0093194A1A4950464FF4377303F0BE
:10D4300073FD81E7BFF34F8F1F49204BCA6802F489
:10D44000E0621343CB60BFF34F8F00BFFDE72B8833
:10D45000013B5FE7642E0010242E0010E92D001020
:10D46000482601005426010000C00F00702601006C
:10D470006026010078260100BC260100002701007B
:10D480000C2701001C270100282701008825010026
:10D49000B825010084260100A0260100EA2D001015
:10D4A000342701004827010074250100C42601002B
:10D4B00044250100D426010000ED00E00400FA0537
:10D4C0002DE9F04FADF5005D89B0BB4C03F018FDC0
:10D4D000BA49BB4A009400204FF4BC7303F01CFD12
:10D4E0000021084601F040FC002840F0BF81B5480B
:10D4F00001F092FA002840F0B28101F0B1FA002860
:10D5000040F0A68102F0D0FB012002F0D5FB02F032
:10D51000E7F9002840F09581002502F053FB2B46E7
:10D520002A464FF4E1312846CDE9005501F00AF9C9
:10D53000A549012002F0BCF8A44BD3F86422D4071B
:10D5400000F18980A04F08AEA04A4FF47E2300214D
:10D55000C2F864121A79AA2A00F08F819C4A9D4B66
:10D56000126812781A701A78AA2A02D01B78AB2B8C
:10D570006ED1994B994C93E8070086E80700314635
:10D58000032001F08FFD402001F090FE402001F0CB
:10D5900063FEC023924984F80E33402001F0B6FCAC
:10D5A0004FF4804323604FF0FF31032001F0E6FD8C
:10D5B0004FF0FF31032001F0F7FD4FF4701300220C
:10D5C0004FF0FF31032001F005FE864C864E874D5B
:10D5D000DFF83892864FDFF83882DFF838A24FF054
:10D5E000FF31032001F09CFD754A7449009440F21C
:10D5F0006A23002003F090FC7E48FFF78DFD33780E
:10D600003846002443B13470FFF76AFDFFF7AAFDE6
:10D6100040462C70FFF748FD2B788BB1012BEED1E3
:10D6200099F80030002BEAD000234FF404725146E1
:10D63000184601F097F930B9002389F80030DEE789
:10D64000FFF728FEDBE7514680B200F0A7F9F3E7C9
:10D65000FFF788FD8DE7D3F86462674B584A574956
:10D66000594F26F0030628463468CDE9003640F2CB
:10D67000E31303F051FC601C08BF08AE3FF464AF35
:10D6800006F12403351DDFF838A1DFF83091DFF80B
:10D6900088B108AE9846069604F00303032B72D1B6
:10D6A000F96924F0030399421A6840F2B780C2F383
:10D6B0001304E0188142C0F0B180DA7802F0F00182
:10D6C000C02946D102F14001C8B249F60101C1406A
:10D6D000C9073ED41E6F019380330793A4F18003E2
:10D6E00004F5FB541F34029226F00306434A0092CD
:10D6F00024F4FF540393049640F20F235246494604
:10D70000002024F01F0403F007FC344417E0079BBB
:10D710000698194603F50053079304F05CFAC6F324
:10D720004532C6F3C041584601F0F2FD3246069933
:10D730004FF40063584606F5005601F0EDFDA64291
:10D740004FF40052E3D10322291F584601F012FE84
:10D750000DE02B4B009352464946002040F2232314
:10D7600003F0DAFB0122291F584601F003FEA84509
:10D7700014D0FB69AB4240F29B8055F8044B621C0D
:10D780008AD1069EE0E61F4B0093524640F23123B9
:10D790004946002003F0C0FBA845EAD11A4B084ACD
:10D7A000069E0921CDE900310020044940F23623CC
:10D7B00003F0B2FBC8E600BF58270100B8250100FE
:10D7C00088250100202F0100EC2D001000000240F0
:10D7D000002B0010E82D00103825010000E100E0CA
:10D7E00091D0000094280100202E0010EA2D001096
:10D7F00074250100BC28010078270100D42701000E
:10D80000142801002C2801005C280100F1570010A9
:10D8100044250100D82B0010214334120193C2F398
:10D820001302444B02920093524649464FF4FD7353
:10D83000002003F071FB0122291F584601F09AFDD8
:10D8400095E702463C494FF4CF7003F04DFB63E689
:10D850000246394940F28D1003F046FB52E602467B
:10D86000354940F28B1003F03FFB46E60246324951
:10D8700040F2851003F038FB39E64FF4E8221168D6
:10D88000B1F1805F0BD3386A00F18050814206D23B
:10D890005268B2F5A03F02D3F9698A4214D3274BEC
:10D8A0000093254A2649CF23002003F035FB55E697
:10D8B000244B214A2249069ECDE9003500204FF431
:10D8C0000F7303F029FB3FE69D68AB0705F5E421E4
:10D8D0004FF4005218BF21F00301304604F07BF9E9
:10D8E0000DF500521C32012352F80449601E03302A
:10D8F000194603F10103F7D8A5EB81014FF4E820A5
:10D9000003F0FEF884427FF429AE00240AE004F01C
:10D9100062F904F5A0304FF40052314600F026FCC5
:10D9200004F50054A54204F5E8214FF400523046B6
:10D93000EDD813E69827010088250100C0250100D5
:10D94000B82501007428010081B110B4084C1144BD
:10D9500012F8013B4340DBB28A4254F8233083EA99
:10D960001020F5D1C0435DF8044B7047C0437047A9
:10D97000CC28010079B170B5074E054632680C46D7
:10D9800001E0E41A1D44136A284698473268536838
:10D99000A342F6D370BD7047042B00102DE9F04F61
:10D9A000A54CA68E97B00546002E36D102287CD90C
:10D9B0004A780B7803EB02239BB2E3868A7884F8DB
:10D9C0003820022B40F2908003273A4673199B1AA5
:10D9D000B3F5047F384628DD984B994A994900935E
:10D9E000002040F25D2303F097FA002394F83810EA
:10D9F0001193012004228DF844008DF8461018463A
:10DA000011A9CDE9133312938DF84720159300F037
:10DA10005DFF002017B0BDE8F08F00273A4673196C
:10DA20009B1AB3F5047F3846D6DCDFF82C8201441C
:10DA3000AA1A08EB060004F0CEF8A08EE18E054489
:10DA4000ED1BADB28D42A586E3D36318424693F831
:10DA50003A5093F839002D0405EB002593F838006F
:10DA600093F83B30054404394FF0FF3005EB036574
:10DA7000FFF76AFF854241D0002594F838101195D0
:10DA800001228DF846108DF844208DF847202B4652
:10DA9000042211A92846CDE913551295159500F0D9
:10DAA00015FF84F838506563B3E7674B0093304641
:10DAB000634A644940F2412303F02EFA012040F208
:10DAC0000131119633468DF84400ADF8461004221A
:10DAD00011A93046CDE913661296159600F0F6FEB0
:10DAE000002017B0BDE8F08F584B0093544A5549B9
:10DAF00040F25523304603F00FFA8AE7E28E94F89D
:10DB00003830043A002192B2013B05920F91032B69
:10DB100000F28D80DFE813F014010400E600A60097
:10DB2000D4F85052002D00F06F82494AD4F84C329C
:10DB30001288E9188A1A93420C9200F25381454EDA
:10DB40000896D6F800C0DCF80030013B134240F0E4
:10DB50004981DCF81030E2680A9213B19847D6F890
:10DB600000C0059B0D93002B33D0EB180993384B65
:10DB7000394A06921B88394F00220792DCF80020B0
:10DB80000599D61AB6B28E4228BF0E46002E00F076
:10DB9000608106999D19ADB2013911F8010FF85451
:10DBA00001339BB2AB42F8D1294B1D80059B0699EE
:10DBB0009B1B31449BB206910593DDE909318B42F1
:10DBC00000F0CE80AA4200F0CB802B46059A002AB6
:10DBD000D4D1DCF8143003B198470D9D204A1E487B
:10DBE000294602F0C7FFD4F85022294611440A46BC
:10DBF000080A090C8DF83E10110E8DF83C208DF8A6
:10DC00003D008DF83F100F9DC4F8502200230520E1
:10DC10000221CDE9113508228DF844008DF8461017
:10DC2000184611A9CDE91333159300F04FFE0023D8
:10DC300084F838306363ECE6682E0010482D01004C
:10DC4000CC2C0100B8250100002D0100142D01008D
:10DC5000DC500010042B0010A42E0010DC3000104B
:10DC6000F05200100025012104222B461195284670
:10DC70008DF8441011A98DF84620CDE91355129561
:10DC8000159500F023FE4FF4FA7002F0F3FC724990
:10DC9000724A009128467249724F40F2062303F0FF
:10DCA0003BF9714B6D4A009328466D4940F20B23B6
:10DCB00003F032F94FF400563A684FF47E2501E044
:10DCC000F61A1D44136A284698473A685368B342C7
:10DCD000F6D34FF4FA7002F0CDFC0021084601F0B3
:10DCE00051FFA4E7614D22692B689A4200F07981C7
:10DCF0005F485A4A5A4900904FF4FC73002003F0E1
:10DD00000BF90023012140F20312119312938DF8B5
:10DD10004410ADF846201846042211A9CDE913336A
:10DD2000159300F0D3FD4F4B08931B68DB6803B1DC
:10DD30009847002323702B60089B4E4A1A6076E7B1
:10DD4000059B2B2B00F2A280002340F2012201212F
:10DD500011931293ADF846208DF8441004225FE72A
:10DD60000C990798DCF81C3002FB00194846424920
:10DD7000984780BB414B1E88089B0B96D3F800B098
:10DD8000002E00F04B81DFF80081054602E0B6EB83
:10DD90000A0646D0B6F5047FB24628BF4FF4047A8F
:10DDA00009EB05015246DBF81830404698477919CF
:10DDB00052464046554403F0FEFE0028E7D00B9A39
:10DDC0002F4B0093CDE901922549244A40F20913D3
:10DDD000002003F0A1F8089B1B685B6903B198471A
:10DDE000D4F850528DF83C502B0A290C2A0E8DF88D
:10DDF0003D308DF83E108DF83F200F98002305210F
:10DE000040F20272CDE911308DF84410ADF8462091
:10DE10001846082211A9CDE91333159300F056FDD9
:10DE200005E7164B1B880D4A0D49CDE90193154BAB
:10DE30000093002040F24D1303F06EF8079B0F4A49
:10DE40000133DBB2079300231380089AD2F800C095
:10DE5000BCE61D46AAE600BF7C2E0100CC2C0100CA
:10DE6000B8250100042B0010A02E0100F052001074
:10DE7000682E01004C2B0010DC300010DC5000102C
:10DE8000202E0100B02E0100E050001094F8425006
:10DE900094F841C094F8460094F83E3094F83D2040
:10DEA00094F84A1094F83C60A34F2D0405EB0C2520
:10DEB00094F845C0000400EB0C201B0494F849C002
:10DEC00003EB0223090494F84E2001EB0C2194F893
:10DED0004DC01E44120494F85E3002EB0C2294F8FC
:10DEE0005DC01B0403EB0C2394F840C0654494F818
:10DEF00044C0604494F848C0614494F84CC0624403
:10DF000094F85CC0634494F83FC006EB0C6666600E
:10DF100094F8436005EB0665A56094F8475000EB64
:10DF20000560E06094F84B0001EB0061216194F81A
:10DF30004F10824802EB0162626194F85F2094F80E
:10DF40006110002603EB026363623E6094F8625046
:10DF500000902D0405EB012594F8661094F86500F7
:10DF6000774A090401EB002194F86000054494F815
:10DF70006400014494F8630005EB006594F86700C1
:10DF8000A56201EB006140F2A313E16230466D49E6
:10DF900002F0C2FF6C4BE56A1E80C4E99366002D57
:10DFA0003ED06A4B0093012D654A66490CBFD123D0
:10DFB000D723304602F0B0FF0025012140F2015284
:10DFC00011952B468DF84410ADF8462011A9042276
:10DFD0002846CDE913551295159500F077FC25706C
:10DFE00025E65B4B564A57490093002040F2ED135B
:10DFF00002F092FF002301210322119312938DF866
:10E0000044108DF8462086E6524EA6F506770FCFCF
:10E010000FC697E80F0086E80F0086E5334602E753
:10E020004D4B00934FF46C274FF4A036BF23CDE93E
:10E030000167434A4349284602F06EFFE368BB424A
:10E0400065D8464B46499A680891C4F84C620B6003
:10E0500012B19047002865D1089B1B681B69002BF3
:10E0600053D09847002850D0089B1B68DF680FB139
:10E07000B8470027E268D4F84C323249CDE9013282
:10E08000384B00932E4AE723002002F045FFE56855
:10E09000D4F84C626DB1089B1A68984601E0ED1AFD
:10E0A0001E44136A30469847D8F800205368AB42A4
:10E0B000F5D3089B1B685B6903B19847002F3FF4B9
:10E0C0007BAF089B1B6801256FF05401DB69109141
:10E0D0002A4610A925704FF47E209847D4F8501294
:10E0E0008DF83C100A0A8DF83D200A0C090E8DF8B7
:10E0F0003E208DF83F100F9900230522CDE9113104
:10E100008DF844208DF8465082E60127B2E7164884
:10E110000090CDE901730A4A0A49C423284602F057
:10E12000FBFE49E7094B0093054A0649F1232846BF
:10E1300002F0F2FE40E700BFF0520010642D010033
:10E14000CC2C0100B8250100DC500010E82D0100A6
:10E15000542E0100BC300010882D01004C2B001003
:10E16000042B0010002E0100A82D0100014B1B689C
:10E17000DB691847042B001010B500238CB0CDE9E3
:10E18000003300285FD001285BD19DF804400522B0
:10E1900062F347144A1EB2F5E16F8DF80440C0F0F7
:10E1A0001A816FF4E16C01EB0C02B2F5E16F80F0C3
:10E1B00042819FEDC17B00200021CDE904010020B8
:10E1C0001B218DED027BCDE90601CDE90833CDE9B8
:10E1D0000A33BD49012001F089FD002840F0428149
:10E1E000B94C00222068114601F0BCFD002840F027
:10E1F0004781206802A901F039FE002840F03981EA
:10E2000000992A2001F016F9002840F04781019971
:10E210002B2001F00FF9002840F03981AB4B602230
:10E2200083F810234FF480321A605121206802F0E5
:10E23000C9F9002840F039812168A548682203F017
:10E24000CAFC0CB010BD4B1EB3F5E16FC0F083806B
:10E250006FF4E1640B19B3F5E16FC0F0E9806FF47E
:10E260006163CB18B3F5616FC0F08D81A1F5E15307
:10E27000013BB3F5965FC0F07781A1F53B53213B9D
:10E28000B3F5965FC0F03681A1F58343213BB3F52A
:10E29000E15FC0F04981A1F5BB43413B41F2887287
:10E2A000934240F23E81A1F5EA434A3BB3F5965FC3
:10E2B000C0F03D81A1F508430A3B43F25602934268
:10E2C00040F23881A1F53843613BB3F5165FC0F0E9
:10E2D0003481A1F55D43E13B42F69F02934240F257
:10E2E0002F81A1F58333813BB3F5E14FC0F02B8142
:10E2F000A1F10113A3F5EE43B3F5963FC0F02681DB
:10E30000744AA1F528336FF440742344934240F2D9
:10E310002081A1F56A336FF412721344B3F5E13F23
:10E32000C0F01A816C4AA1F5AD236FF4896C634487
:10E33000934240F21381694AA1F528236FF44064A7
:10E340002344934240F20D81654B664C994298BF3D
:10E350004FF0FF34D0E09FED5A7B00220023CDE93F
:10E36000042300221B238DED027BCDE90623CDE99A
:10E370000800CDE90A005C49002001F0B7FC002844
:10E380004FD1594C00222068114601F0EBFC0028C7
:10E3900040D1206802A901F069FDA0BB00992720A7
:10E3A00001F048F840BB0199282001F043F8E0B99A
:10E3B000464B602283F80F234FF400421A6051212C
:10E3C000206802F0FFF848B921684848682203F045
:10E3D00002FC0CB010BD9FED3A7BECE602464449CE
:10E3E00040F2111002F080FDEEE70246404940F293
:10E3F0000B1002F079FDDBE702463D4940F20910BF
:10E4000002F072FDCFE70246394940F2051002F0F2
:10E410006BFDC3E70246364940F2031002F064FD8B
:10E42000B7E70246324940F2011002F05DFDA8E76D
:10E430009FED217B91E76FF461628A18B2F5616FFD
:10E4400038BF4FF4965080F0A18060211B22CDE9A7
:10E450000201CDE90433CDE90632CDE90833CDE937
:10E460000A33B6E60246224940F2191002F03CFD9A
:10E47000B6E602461E4940F21D1002F035FDBFE629
:10E4800002461B4940F21B1002F02EFDB1E6024687
:10E49000174940F2231002F027FDBFE60246144957
:10E4A00040F2211002F020FDB1E60246104940F290
:10E4B000291002F019FDBFE66009000060000000AD
:10E4C000B0040000600000006053001000E100E0B4
:10E4D0006453001047070100B71F05001F1D04000B
:10E4E00020A90E0040420F00F4520010F852001014
:10E4F000E42E01004FF46154002360211B22CDE97A
:10E500000241CDE90433CDE90632CDE90833CDE946
:10E510000A3300283FF42FAF01283FF45AAE0CB065
:10E5200010BD4FF4E144E7E74FF49644E4E747F6C3
:10E530001224E1E74FF41644DEE74DF6C024DBE792
:10E540004FF46144D8E74FF49634D5E74FF4E13403
:10E55000D2E74FF46134CFE7114CCDE74FF4E1241B
:10E56000CAE74FF46124C7E74FF4165160221B231A
:10E57000CDE90212CDE90400CDE90603CDE908009A
:10E58000CDE90A00F7E64FF49651EFE7A1F5E15225
:10E59000013AB2F5965FBFF470AE4FF4165054E7EF
:10E5A00090D003000000000030B52D4C91B02068E1
:10E5B000012201A902F042F8002845D10199206802
:10E5C00002F02AF8002839D10199206802AA01F046
:10E5D0005DFF68BB019B13F0010204D0214B0122B7
:10E5E0001A7011B030BD13F0500FFAD09FED1A7BA6
:10E5F00003AB0AAD04A920680E92012408938DEDA7
:10E60000067BCDE90A22CDE90324CDE90C22CDF821
:10E610003B20059501F03AFD039A1348294602F084
:10E6200075FB019B5B0644BF104B1C7011B030BDE5
:10E6300002460F495C2002F057FCCBE702460C492A
:10E640005A2002F051FCBFE702460949582002F067
:10E650004BFCB3E7AFF300801700000000000000A0
:10E66000F4520010F2570010082B0010F157001060
:10E67000E42E01000000000030B52D4C91B0206860
:10E68000012201A901F0DAFF002845D10199206893
:10E6900001F0C2FF002839D10199206802AA01F0D7
:10E6A000F5FE68BB019B13F0010204D0214B01224F
:10E6B0001A7011B030BD13F0500FFAD09FED1A7BD5
:10E6C00003AB0AAD04A920680E92012408938DEDD6
:10E6D000067BCDE90A22CDE90324CDE90C22CDF851
:10E6E0003B20059501F0D2FC039A1348294602F01D
:10E6F0000DFB019B5B0644BF104B1C7011B030BD7D
:10E7000002460F49812002F0EFFBCBE702460C499D
:10E710007F2002F0E9FBBFE7024609497D2002F0B5
:10E72000E3FBB3E7AFF30080170000000000000038
:10E7300060530010F45700101C2B0010F35700100A
:10E74000E42E010038B504460D46FFF715FD044BD5
:10E7500003EBC402012103F83410556038BD00BF3B
:10E76000F857001070B5044630B101283AD0514B2B
:10E77000002203F8342070BD4F4B4FF40042C3F821
:10E780008020BFF34F8FBFF36F8F4C4DC3F88021B4
:10E790002868512101F02AFF00285AD1484E27202D
:10E7A000316800F047FE002861D13168282000F070
:10E7B00041FE002854D128680022022101F0D2FA3B
:10E7C00000283FD1286801F0B9FA0028CFD00246CE
:10E7D0003C494FF4A47002F087FB364B002203F84B
:10E7E000342070BD344B4FF48032C3F88020BFF327
:10E7F0004F8FBFF36F8F344DC3F8802128685121AC
:10E8000001F0F4FE00284ED12D4E2A20316800F090
:10E8100011FE002840D131682B2000F00BFEA0BB78
:10E8200028680022022101F09DFA38BB286801F017
:10E8300085FA00289BD00246224940F25F1002F080
:10E8400053FB94E702461F494FF4A37002F04CFBC0
:10E85000B8E702461B494FF49E7002F045FB9DE766
:10E86000024618494FF4A17002F03EFBA3E70246AE
:10E8700014494FF4A07002F037FB96E702461149A5
:10E8800040F25D1002F030FBD0E702460D4940F245
:10E89000591002F029FBC3E702460A4940F257101B
:10E8A00002F022FBB7E70246064940F2531002F09D
:10E8B0001BFBA9E7F857001000E100E0F45200103C
:10E8C000602F0100E42E01006053001000293BD0AE
:10E8D00030B5034689B020B101281CD0002009B012
:10E8E00030BDAAB11A481B4C00682370CDE9023331
:10E8F000CDE9041202AB4FF0FF3503A9079306954B
:10E9000001F0C4FB144B01932378002BFCD0E5E706
:10E91000104609B030BD002AFAD000230F48104C31
:10E9200000680193CDE903314FF0FF31CDE90521B6
:10E9300001AA03A92370079201F0A8FB064B0293DA
:10E940002378002BFCD0C9E76FF00200704700BFAE
:10E95000F4520010F257001040420F0060530010B4
:10E96000F457001020B1012805D1044802F02ABA5A
:10E97000034802F027BA6FF0060070471C2B001006
:10E98000082B001020B1012805D1044802F0B2B9CB
:10E99000034802F0AFB96FF0060070471C2B00105F
:10E9A000082B0010FEE700BFFEE700BFFEE700BF38
:10E9B000114812490160D1F800D01148016841F4B2
:10E9C00070010160BFF34F8FBFF36F8F0D480E4989
:10E9D0000E4A50F8043B41F8043B9142F9DB0C48E5
:10E9E0000C494FF000028842B8BF40F8042BFADB14
:10E9F000FEF766FD00BE000008ED00E000C000006C
:10EA000088ED00E05C3B0100002B0010D82B0010CB
:10EA1000D82B00102C5E001030B583B0044600F0F7
:10EA20003FFE0E4D01902B6823F440732B6001983C
:10EA300000F03AFE63782278A1781B0203F4407359
:10EA4000120143EA4103D2B2134343F4801343F467
:10EA5000806300202B6003B030BD00BF0080014008
:10EA6000034A136843F0010300201360704700BF9E
:10EA70000080014010B501388EB0102800F25E8190
:10EA8000DFE810F0180036003D004000430045006C
:10EA90001A0011004700540061009A00D3000C01D5
:10EAA00026013F011D004FF40073AC4A0020936023
:10EAB0000EB010BD0123F8E74FF48063F5E700299D
:10EAC00000F03C814A68A648024240F037818B68DA
:10EAD000184040F033810C78002C40F033819F4C7B
:10EAE000497822616361236861F382032360DFE771
:10EAF0009A4B1B68DB0140F11F810223D5E74FF4DD
:10EB00008863D2E74FF40873CFE74023CDE7202393
:10EB1000CBE700F0C5FD914A0090136843F0807385
:10EB20001360009800F0C0FD0020C1E700F0B8FDC0
:10EB30008A4A0190136823F080731360019800F0F3
:10EB4000B3FD0020B4E700F0ABFD03468548029317
:10EB500000F066FC20F47C5040F4E061814800F055
:10EB600063FC029800F0A0FD00F09AFD03467D488A
:10EB7000039300F055FC20F4776040F4EE6179488F
:10EB800000F052FC039800F08FFD00F089FD034671
:10EB90007448049300F044FC20F4706020F00F00EF
:10EBA00040F4E06141F003016E4800F03DFC049840
:10EBB00000F07AFD00207BE700F072FD0346694813
:10EBC000059300F02DFC20F47C5040F4B8516548CA
:10EBD00000F02AFC059800F067FD00F061FD034697
:10EBE0006048069300F01CFC20F4776040F4EA6172
:10EBF0005C4800F019FC069800F056FD00F050FD4E
:10EC000003465848079300F00BFC20F4706020F096
:10EC10000F0040F4E06141F00101524800F004FCB3
:10EC2000079800F041FD002042E700F039FD03465F
:10EC30004C48089300F0F4FB20F47C5040F4B851A9
:10EC4000484800F0F1FB089800F02EFD00F028FD88
:10EC500003464448099300F0E3FB20F4776040F456
:10EC6000EC61404800F0E0FB099800F01DFD00F069
:10EC700017FD03463B480A9300F0D2FB20F4706076
:10EC800020F00F0040F4E06141F00101354800F050
:10EC9000CBFB0A9800F008FD002009E700294DD0C1
:10ECA0000C68032C4CD800F0FBFC03462D480B935A
:10ECB00000F0B6FB20F47C5040EA043141F4E061FE
:10ECC000284800F0B1FB0B9800F0EEFC0020EFE6C6
:10ECD000A1B30C68072C33D800F0E2FC03462148AE
:10ECE0000C9300F09DFB20F4776040EA041141F49E
:10ECF000E0611C4800F098FB0C9800F0D5FC002067
:10ED0000D6E6D9B10C680F2C1AD800F0C9FC03461E
:10ED100014480D9300F084FB20F4706020F00F0085
:10ED200040EA040141F4E0610E4800F07DFB0D98DB
:10ED300000F0BAFC0020BBE60720B9E60620B7E6E3
:10ED40000120B5E6012CF9D1044C4978A261E361B8
:10ED5000236861F3C3032360AAE600BF008001407B
:10ED60000F0000F804800140494B1A6812B9494A63
:10ED700012681A60092800F28980DFE800F00D1699
:10ED80001E263A424C545C054FF0402300201A6A7C
:10ED90006FF300021A6270474FF0402300224721B0
:10EDA000596110469A615A6170474FF04023002024
:10EDB000DA686FF30002DA6070474FF040230020FA
:10EDC000DA686FF34102DA607047334AD368DBB226
:10EDD000212B06D1D2F82031012161F30923C2F899
:10EDE00020314FF040220020D36843F00103D3606C
:10EDF00070474FF040220020D36843F00203D360F5
:10EE000070474FF04023002247200121586199614B
:10EE100010465A6170474FF040230020DA686FF3C4
:10EE2000C712DA6070474FF040220020D36843F0E9
:10EE30008003D3607047184AD368DBB2212B0AD015
:10EE400039B10B6843F001034FF0402200201362F8
:10EE50007047124BF8E700B583B04FF47A50019138
:10EE6000D2F8203143F44073C2F8203100F092FA16
:10EE7000019949B10B6843F001034FF04022002093
:10EE8000136203B05DF804FB044BF6E706207047FD
:10EE90008858001000F0FF4F0000024001B8250024
:10EEA000B0B110B44FF0402103468C6909480A4ABA
:10EEB00014F0010F08BF02461A60CA695DF8044BDE
:10EEC00002F00101C2F34002002059601A7270473B
:10EED00006207047006CDC0200366E0198B170B5F8
:10EEE000094E04464FF00045B4FA84F3C3F11F0203
:10EEF00025FA03F356F8222024EA030402B19047CE
:10EF0000002CF1D170BD704708580010B0F5803F5B
:10EF100010B50C4600F0BD801CD8B0F5807F00F025
:10EF2000AC803BD820282BD880B301381F282DD89F
:10EF3000DFE800F099A52CA72C2C2CAD2C2C2C2C28
:10EF40002C2C2CAB2C2C2C2C2C2C2C2C2C2C2C2C82
:10EF50002C2C2CA9B0F1807F00F08D8055D9B0F118
:10EF6000805F00F0868042D9B0F1804F71D0B0F15F
:10EF7000004F08BF1F2326D1474A42F8234010BD47
:10EF8000402862D0802808BF0723F5D0434A444870
:10EF90004FF4E97100F0BAF90023EDE7B0F5805FB6
:10EFA00065D016D9B0F5804F55D0B0F5004F08BFE9
:10EFB0000F23E1D0B0F5005F08BF0D23E6D1364A3C
:10EFC00042F8234010BDB0F1005F08BF1D23D3D02D
:10EFD000DCE7B0F5806F44D0B0F5006F08BF0B23BD
:10EFE000CAD0B0F5007F08BF0923C5D0CEE7B0F185
:10EFF000806F34D0B0F1006F08BF1B23BCD0B0F1DC
:10F00000007F08BF1923B7D0C0E7B0F5801F2CD010
:10F010000DD9B0F5800F20D0B0F5000F08BF172331
:10F02000AAD0B0F5001F08BF1523A5D0AEE7B0F5F4
:10F03000802F0CD0B0F5002F08BF13239CD0B0F563
:10F04000003F08BF112397D0A0E7062394E71223BF
:10F0500092E71E2390E70E238EE716238CE71A23F0
:10F060008AE70A2388E7002386E7142384E70C2332
:10F0700082E71C2380E718237EE708237CE701232F
:10F080007AE7022378E7052376E7042374E703236E
:10F0900072E7102370E700BF08580010242F01000A
:10F0A0004C2F01002DE9F04182B00C46064600F0DD
:10F0B000F7FA194F01904FEA461858F8073043F015
:10F0C000082348F80730019800F0EEFAD4E901531C
:10F0D00045EA034523680BB145F0004500F0E0FA2E
:10F0E000009048F80750009800F0DEFA63680BB90A
:10F0F00022684AB1C3F344030022084800EB4606E5
:10F10000B35402B0BDE8F081A368002BF9D0C3F37B
:10F1100044030122F1E700BF0C800040302B0010B7
:10F1200030B583B00C46054600F0BAFA4FEA451CEC
:10F13000104901905CF8013004F0082223EA020231
:10F1400004F00113134314F5803F4CF801300CBF59
:10F15000C3F34444C3F34404074B01980CBF01229A
:10F16000002203EB4505AC5403B0BDE8304000F08D
:10F170009BBA00BF0C800040302B001030B583B02C
:10F1800045010C4600F08CFA064B0190E95804F05A
:10F19000011421EA0404EC50019803B0BDE83040AA
:10F1A00000F082BA0C80004030B583B045010C46B7
:10F1B00000F076FA064B0190E95804F008240C435D
:10F1C000EC50019803B0BDE8304000F06DBA00BFCC
:10F1D0000C8000402DE9F0470E4682B001314FEA25
:10F1E00040150CBF1F0C9FB292461C4600F058FA07
:10F1F000DFF85C80DFF85C900190BAF1010F55F800
:10F20000083055F809101AD0104AA4B21340114022
:10F210001C43394316F5803F09D0013645F80840B4
:10F2200005D0019802B0BDE8F04700F03DBA45F8BE
:10F230000910019802B0BDE8F04700F035BA9BB262
:10F2400089B243EA044441EA0741E3E70000FFFFD3
:10F25000048000400880004010B582B0044600F0F1
:10F260001FFA064A0190D2F800322343C2F8003256
:10F27000019802B0BDE8104000F016BA00800040CE
:10F2800010B582B0044600F00BFA074A0190D2F89C
:10F29000003223EA0403C2F80032019802B0BDE84C
:10F2A000104000F001BA00BF0080004010B582B0ED
:10F2B000044600F0F5F9054B0190C3F808420198A7
:10F2C00002B0BDE8104000F0EFB900BF0080004080
:10F2D00010B582B0044600F0E3F90B4B019054B135
:10F2E000D3F80442D3F8003201981C4000F0DCF956
:10F2F000204602B010BDD3F80442019800F0D4F9C2
:10F30000204602B010BD00BF00800040FEE700BFF5
:10F31000004B184751000008F0B5134D01EB830C6A
:10F32000AC4583B005D0114CA44603B0BDE8F04015
:10F330006047012B07461C46164605D90B4D013B7D
:10F34000A84708B103B0F0BD094B04F18042D3F8DF
:10F35000FC3F0193013A054C012306EB820201A90F
:10F360003846A04703B0F0BD000006105500000865
:10F3700000F0051010B50C6882B02240D243019213
:10F38000034C0A46012301A9A04702B010BD00BFEB
:10F39000550000084FF040235B6B5B0746BF400001
:10F3A0000E230B23984202D9014AC01A1047704716
:10F3B0009D0000082DE9F8439DF820C0DFF85C802F
:10F3C00004460D4616461F464FF04029BCF1000F7B
:10F3D0000AD01AE0F4B1D9F8343013F0040F0CBF9E
:10F3E00005201220013CC04728683040B842F1D0C7
:10F3F0000020BDE8F8836CB1D9F8343013F0040F65
:10F400000CBF05201220013CC04728683040B8429C
:10F41000F1D1EDE70420BDE8F88300BF9D000008AE
:10F42000004B184775000008014B43F001031847D3
:10F43000402B0010312800F2C3802DE9F04F044624
:10F4400011F0E00701F0070085B0C1F3C1034FEAF6
:10F45000C0020FD0C1F34216B51D05F00705032DFC
:10F4600042F0010240F2AE80C02F00F0E180202F78
:10F4700000F0E38063B1012B00F0D380022B40F059
:10F48000C980794B1B5D5B0740F1C48042F080026C
:10F49000764B1B5D03415B0003F002031343744A88
:10F4A000125D824200F09980C1F30030C1F38125E2
:10F4B000C1F3803243EA4003880A42EA450200F081
:10F4C00008000243C1F3072000F00C05042D00F0F2
:10F4D000A580684D2D68A1EB0508B8FA88F84FEAB9
:10F4E000581810F0600F04BFC1F3C03060F3000281
:10F4F000A000C1F3012102295CD0032958D00129C1
:10F500004FEAC40108BF43F0040301F018010027CB
:10F5100000F01C0002FA00F60F228240D2434FF0A6
:10F52000FF0903FA01F509FA01F9019200F0B8F8B0
:10F5300024F0030A4FEA540B0AF1804C4E4B4F491A
:10F54000019A03906FEA09092BF0030B0CF5803C3C
:10F55000B8F1000F0BD04FEAD40E04F01F08484852
:10F560000EF0040E012404FA08F44EF80040454859
:10F5700073240466DCF8004004EA09042543CCF84F
:10F5800000505BF80340224032434BF803205AF806
:10F59000013003EA0909002449EA07074AF8017023
:10F5A0000466039800F080F8204605B0BDE8F08FAF
:10F5B00043F00403E10001F0180101278F40A7E7A1
:10F5C00006207047284D2D5D023E42EA8612EE0766
:10F5D00036D5002B3FF45CAF4DE7C1F30242072A5A
:10F5E00030D0294DC1F3C14040EA021215F8240081
:10F5F000904229D005EB8405A0006E7896422DD06C
:10F60000AE7896422CD0ED7895422BD01F4805B0AD
:10F61000BDE8F08F1E4805B0BDE8F08F4FF001083F
:10F620005FE7114B1B5D9D07F4D542F040022FE7C9
:10F63000142C3FF41FAF1748B7E7142C7FF41AAF10
:10F640001548B2E71548B0E70022A0005200C1F308
:10F65000405542EAC5024FF000084AE70122F5E7AB
:10F660000222F3E70322F1E7642F0100982F010043
:10F6700094300100602F010040000140E000014093
:10F68000B400014000000140CC2F0100040100083B
:10F690000201000801010008000100080301000840
:10F6A000EFF3108072B6704780F31088704700BF88
:10F6B000002900F08F80012830B406D002286DD0D8
:10F6C000002855D0062030BC7047434A4348136891
:10F6D0000B6054684C6094688C60D468CC60C3F351
:10F6E000035514690C6150F825503D4C5069486130
:10F6F00003F00102C3F30343C1E9062554F82330A4
:10F70000384A0B62D2F8E030D2F8E400DBB200F005
:10F710000F0043EA00234B62D2F8E430D2F8E8004D
:10F72000C3F3031300F00F0043EA00138B62D2F817
:10F73000E830D2F8EC0003F0F003C0F30310034309
:10F74000CB62D2F8FC40D2F8F830D2F8F400D2F80C
:10F75000F020DBB21B0443EA04635FFA82FC43EA55
:10F760000C03C2B243EA02230B63002030BC704793
:10F77000194A9369C3F380140C70D2F8A041C3F303
:10F7800080034B70C4F381630B715369C3F3400270
:10F7900003F0010330BC8A70CB7070470E4A486892
:10F7A000D2F8CC3103F001040C70C3F340040C72A6
:10F7B000D2F8C441CC60D2F8C0412043C3F38003E7
:10F7C0004860D2F8C8210B744B691343002030BC49
:10F7D0004B6170470620704700000240C8300100AE
:10F7E00008310100000F00F0F0B583B00446FFF7C8
:10F7F00057FF04EB4404154E154D0090A400B36868
:10F800002F593B43B36000982C44FFF74DFFA020D5
:10F81000FFF7C0FDB3696468234203D1A020FFF75E
:10F82000B9FDB369094DAB69234202D0002003B092
:10F83000F0BDFFF735FF0190AB6823EA0707AF6023
:10F840000198FFF731FF012003B0F0BD0010024026
:10F8500048310100F0B583B00446FFF721FF04EB07
:10F8600044041D4E1D4D0190A400B3682F5923EA96
:10F870000703B36001982C44FFF716FFA020FFF7A1
:10F8800089FDB3696468234203D0A020FFF782FD9D
:10F89000B369114B9869204001D103B0F0BD082C29
:10F8A0009B6806D0102C12D0042C0BD0012003B082
:10F8B000F0BD13F00E0FF9D01F4214BF012000203D
:10F8C00003B0F0BD40F281521342EFD0F4E713F0E1
:10F8D000700FEBD0F0E700BF00100240483101008C
:10F8E00030B55F4B1A6885B012B95E4A12681A606B
:10F8F0005D4BDB68DBB2122B04D15C4B5B68DA0733
:10F9000000F18880584BDA68D2B2202A34D9D3F873
:10F910005423022060F31342C3F85423D3F8541342
:10F92000032262F31751C3F85413D3F85813052474
:10F9300064F30301C3F85813D3F8581360F30711A5
:10F94000C3F85813D3F85813062464F30B21C3F8F3
:10F950005813D3F85813012060F30F31C3F858132C
:10F96000D3F8581362F3DE61C3F85813D3F85C136D
:10F9700062F30301C3F85C133B4AD368DBB2112B7B
:10F9800005D9D2F85C336FF31863C2F85C330021F9
:10F990000C20FFF76FF8354B9B69C3F30025DB059F
:10F9A00020D4314CE368DBB2112B3AD82E4C3049CD
:10F9B000A269012002430723A26100901A4642F285
:10F9C0001070FFF7F7FC002846D1284B1A6842F068
:10F9D00001021A605A6A42F040025A62E368DBB2DE
:10F9E000112B02D0002005B030BDD4F85C3360F399
:10F9F0005653C4F85C33D4F868330F2262F38B1388
:10FA0000C4F86833D4F8683362F30503C4F8683384
:10FA100005B030BD0D20FFF7E7FE00283FF472AFC0
:10FA2000E1E7FFF73DFE0390D4F86833192262F353
:10FA30008B13C4F86833D4F868230C214FF04023AB
:10FA400061F30502C4F86823DA6B65F39652DA6352
:10FA50000398FFF729FEA9E7042005B030BD00BFD9
:10FA60008858001000F0FF4F0000024000100240D4
:10FA70001800024010B40024C0E90044C0E9024369
:10FA8000C0E904215DF8044B704700BF70B50569FB
:10FA900082B0044602FB05F50E46FFF701FEE26860
:10FAA0000190A068131AAB421CD395B1236806B32A
:10FAB000711E4E19626911F8010FD0542368E06875
:10FAC00001338E42B3FBF0F200FB12332360F1D11D
:10FAD000A0680544A5600198FFF7E6FD01242046D3
:10FAE00002B070BD0198FFF7DFFD0024204602B090
:10FAF00070BD3146013101338D42B3FBF2F602FB9A
:10FB00001633F7D12360E4E770B50569044682B087
:10FB100002FB05F50E46FFF7C3FDA2680190AA425D
:10FB20001CD395B1636806B3711E4E196269D35C2C
:10FB300001F8013F6368E06801338E42B3FBF0F2E5
:10FB400000FB12336360F1D1A2680198521BA260DE
:10FB5000FFF7AAFD0124204602B070BD0198FFF70F
:10FB6000A3FD0024204602B070BDE068314601319B
:10FB70000133A942B3FBF0F600FB1633F7D1636003
:10FB8000E3E700BF032819D8DFE800F0120C0802F1
:10FB90004FF0804301225A6100207047084B00203B
:10FBA000186070474FF080431B225A600020704756
:10FBB0004FF08043D4229A6000207047062070479F
:10FBC00000F0FF4F024A136D43F0100313657047B6
:10FBD000004200404EF60853CEF20003186003685E
:10FBE00042689D46104700BF10B5214AD2F8A431A3
:10FBF0005C0784B003D5D2F8A03159070AD428B1E4
:10FC0000FFF7E8FF0023184604B010BD034618466E
:10FC100004B010BD1749184BD1F8001A01249C6795
:10FC2000C943019CC3F88010C3F88440DDE9024158
:10FC3000C3F88840C3F88C10DB6F13F00103E2D1E6
:10FC40000423C2F8A031D2F8B031DB07D7D54FF08A
:10FC5000E024D4F8F01DD2F8B03123F00103C2F84B
:10FC6000B031064B89B20B43C4F8F03DC7E700BF83
:10FC700000000240001002500000034003005FA09B
:10FC8000034A0346D2F84001C2F84031704700BF32
:10FC900000800040034AD2F8003323EA0000C2F893
:10FCA0000003704700800040024B4FF47002C3F81D
:10FCB0008820704700ED00E010B582B00446FFF7E1
:10FCC000EFFC094901904A6B002C22F0404214BF1E
:10FCD0004FF040434FF0004313434B63019802B091
:10FCE000BDE81040FFF7E0BC00EF00E001281AD8A3
:10FCF000E9B130B568220F4D00FB02F2AC18E37891
:10FD0000C3F3000E13F001030FD16062A85800F096
:10FD10007E4C09484CEA0000A85084F804E02366B1
:10FD200018460C6030BD05207047072030BD062006
:10FD3000704700BF8C580010069EEA0170B108B5EC
:10FD40000368074A23F07E43934201D0022008BD96
:10FD50006822002101F04DFF002008BD02207047FD
:10FD6000069EEA012DE9F041044600683E4B20F072
:10FD70007E469E4284B049D1656A05F10800C7B24B
:10FD8000D1B1481E01283DD805F58028002A41D16F
:10FD900005F580251C352D034FF0FF3308F11C08B5
:10FDA0006B644FEA083500242C633846FFF752FD98
:10FDB000204604B0BDE8F081002A4BD02379002B07
:10FDC0004FD0384605F5802501911C35FFF70CFD15
:10FDD000FFF766FC2D03A36802902B62D4E903238E
:10FDE0006A62AB62D4E90523EA622B63D4E9072394
:10FDF00001996A63AB6302982171FFF755FC019981
:10FE0000084600E0062004B0BDE8F081022004B0FE
:10FE1000BDE8F081FFF744FC08F11C052D030390B9
:10FE20002A6AA2606A6AE260AA6A2261EA6A626178
:10FE30002A6BA2616A6BE2610123AA6B22622371C1
:10FE40000398FFF731FC236823F07E43B342AAD125
:10FE5000656A9DE738460192FFF7C6FC019A104695
:10FE6000D1E70720CFE700BF069EEA010368814A79
:10FE700023F07E43934240F0B3802DE9F041446A81
:10FE800004F580241C3424030023236390F8643099
:10FE9000052B84B0054600F2B5800E46002B40F0DD
:10FEA0009B800127FFF7FCFB0190236B43F00803C5
:10FEB0002363236B67F3061323630198FFF7F4FBB7
:10FEC000FFF7EEFB0290236B6FF300032363236BBA
:10FED0006FF349232363236B6FF308232363029893
:10FEE000FFF7E2FB644B3268DB68DBB2122B7DD09C
:10FEF000614BDB68DBB2202B02D9604B9A4279D888
:10FF0000236BC3F30213013BDBB2032B74D85C49B0
:10FF100051F82310120191424FEA8113B1FBF2F024
:10FF2000B3FBF2F3A3EB801370D360626062A36251
:10FF30009B0803EB0013B1FBF3F32B66236B6FF30A
:10FF40008E332363236B6FF3CF3323633369226BC9
:10FF500071691A4373682263F26861631343B2687C
:10FF6000134343F01003E362FFF79AFB0390236B04
:10FF700043F001032363236B43F400732363236B78
:10FF800043F4807323630398FFF78EFB2A68394B91
:10FF900022F07E48984525D1B169D6E9084711B1CC
:10FFA000F369002B36D16B6A03F580231C331B03E6
:10FFB000002285F828209A6B22F020029A630CB167
:10FFC000002F3DD19A6B002022F0500285F84400AA
:10FFD0009A6304B0BDE8F081013B03F0070761E7D5
:10FFE00002207047002004B0BDE8F081B2F5612F17
:10FFF0007FF67EAF2348ECE7234800232B6604B04E
:020000021000EC
:10000000BDE8F081062004B0BDE8F08100231D4862
:100010002B66DEE7012285F8282005F12C00FFF78A
:1000200029FD2B6823F07E434345DBD16B6A03F542
:1000300080231C331B039A6B42F020029A63BEE7B5
:10004000012285F844203B46214605F14800FFF790
:1000500011FD2B68074A23F07E439342C2D16B6A9D
:1000600003F580231C331B0300209A6B42F05002DF
:100070009A63AEE7069EEA010000024060E31600C4
:10008000FC31010003000008020000082DE9F04FD8
:100090002DED028B0D6891B004464DB1012D00F09D
:1000A0008F800725284611B0BDEC028BBDE8F08F8C
:1000B000D1E902B84B680A6902921846B8F1000FFC
:1000C00000F01181BBF1000F00F07281002C00F0F4
:1000D0006581A9462F460195254619462A681C4682
:1000E000AD4B22F07E429A425E462DD195F82820F3
:1000F0007ABB481E696A01F580211C3109038B69AE
:100100009B0605D4013210F8013F0B609642F6D8E9
:100110001744B61A36B9019D029B002B00F08C8063
:100120001F60BFE71020FFF735F9B8F1FF3F18BF98
:1001300009F10109C845EED92A68974B22F07E42A1
:100140009A4204EB0701D1D0029B03B11F60022544
:10015000A8E7D5E90D02121AB242134605F12C0B9D
:1001600028BF33461A4658460393FFF78FFCD5F84D
:1001700024A0FFF795FA0AF5802A0AF11C0A0890D4
:100180004FEA0A3A0DE0FFF7BFFC90B16A6A02F548
:1001900080221C321203936999065CBF9DF81C30C3
:1001A0001360DAF818309B064FF0010207A9584691
:1001B000E9D5039B08981F44F61AFFF775FAA9E7DB
:1001C000CD680B690193D1E901B7002D00F0B5802E
:1001D000002F00F01E81002800F0E7802268DFF881
:1001E000B8A100F1480322F07E4208EE103A4FF029
:1001F00000092B465245C8465D461E4633D194F849
:100200004420002A37D1616A01F580211C31681E23
:1002100009038B69DD0608D40B6813F4706F5ED197
:100220000132974200F8013FF3D89044BF1A57B902
:10023000019B0BB1C3F800800025284611B0BDEC2E
:10024000028BBDE8F08F1020FFF7A4F8731C18BFD5
:1002500009F101094E45EBD9226822F07E42524550
:100260000BEB0805CBD00225019B002B3FF41AAF06
:10027000C3F8008016E7FFF713FA0790606A00F5ED
:1002800080201C3000030DF1200C00228369DB0666
:1002900009D4036813F4706F02F1010219D1202A06
:1002A0000CF8013BF2D118EE100A08A9FFF7EEFB9B
:1002B000002875D00798FFF7F7F9226DBA4228BFDA
:1002C0003A4618EE100A29469044BF1AFFF71CFC64
:1002D000ADE707984FF00065FFF7E6F9C4E79044F3
:1002E0004FF00065C0E7002C3FF431AF22682A4987
:1002F00022F07E428A427FF42AAF029B0BB1C3F800
:100300000080BBF1000F97D094F82850002D51D1F8
:10031000616A01F580211C31421E09038B69980630
:1003200005D4013512F8013F0B60AB45F6D1029BB5
:10033000002B81D01D600025B4E600283FF407AFF4
:100340000268154922F07E428A427FF400AF03B171
:100350001D60002F3FF470AF94F84420002A5AD15A
:10036000616A01F580211C310BF1FF33090314464A
:100370008A69D20609D40A6812F4706076D1013411
:10038000A74203F8012FF3D10546019B002B3FF450
:1003900089AE1C6086E600BF069EEA012746D3E6CA
:1003A0000798394DFFF780F95EE7022580465BE745
:1003B0002F46B1E6656BA26B521B5A4504F12C0720
:1003C000014628BF5A4638461546FFF75FFB666A66
:1003D000FFF766F906F580261C36059036030FE018
:1003E00008A93846FFF790FB78B1626A02F58022CF
:1003F0001C321203936999065CBF9DF8203013608C
:10040000B3699B064FF00102EAD50598FFF74CF956
:100410008DE7B8460CE7FFF743F9616A069001F5EE
:1004200080211C31090308AE00228B69D80609D44B
:100430000B6813F4706F02F101021AD1202A06F83A
:10044000013BF2D104F1480608A93046FFF71EFB34
:10045000A8B10698FFF728F9246DBC4228BF3C4696
:10046000594630462246FFF74FFB8EE74FF00065B6
:100470008BE706984FF00065FFF716F912E606982D
:10048000014DFFF711F90DE6010000082DE9F041DB
:1004900080464A48D8F8003023F07E4383428AB031
:1004A00026D111F0500FD8F824500E46144602D031
:1004B00098F844306BBBB6060AD42CB198F82830B3
:1004C00063B1D8F83430BBB100200AB0BDE8F08188
:1004D00098F82830002B3ED1002CF5D005F580256A
:1004E0001C352D03AB691B070ED401232360EBE7FA
:1004F00002200AB0BDE8F08105F580251C352D03EA
:10050000AB691A07E0D4F0E7002020600AB0BDE82C
:10051000F081FFF7C5F8D8F82410019001F580218B
:100520001C31090302A800228B69DF0609D40B687D
:1005300013F4706F02F1010234D1202A00F8013B5C
:10054000F2D102A908F14800FFF7A0FA80B30198A0
:10055000FFF7AAF8AFE7D8F82460FFF7A1F806F58F
:1005600080261C360290360308F12C0711E00DF1AD
:1005700003013846FFF7C8FA80B1D8F8241001F516
:1005800080211C3109038B6998065CBF9DF80330FC
:100590000B60B36999064FF00102E8D50298FFF7A6
:1005A00083F88AE70198FFF77FF84FF000608CE747
:1005B0000198FFF779F8024887E700BF069EEA0135
:1005C000010000080368084A23F07E43934209D1E2
:1005D000436A03F580231C331B0300209A6B1143ED
:1005E0009963704702207047069EEA010368094A32
:1005F00023F07E4393420AD1436A03F580231C33E0
:100600001B0300209A6B22EA0101996370470220C4
:10061000704700BF069EEA010368074A23F07E4345
:10062000934207D1436A03F580231C331B03002048
:100630005964704702207047069EEA01036810B4AF
:100640000B4C23F07E43A3420DD1436A03F5802374
:100650001C331B032AB9DB6B5DF8044B0B600020D5
:1006600070471B6CF8E702205DF8044B704700BF31
:10067000069EEA0110B584B0044601A8FEF710FCFE
:10068000019B0548A0FB03239B0904FB03F0FEF735
:1006900081FE04B010BD00BFF119760501B51EF052
:1006A000040F0ABFEFF30880EFF3098010F1080090
:1006B00000F006F801BD00BF8000401800687047D8
:1006C0002DE9F04F002395B0CDE90233CDE9043395
:1006D000CDE906334FF0E0221293D2F8283D129371
:1006E000129BDBB28DF84C30129BC3F307238DF8BD
:1006F0004D30129B1B0CADF84E30D2F8383D1193A3
:100700009DF84D309B07044600F1E8814FF0FF3320
:10071000214600201093FFF7CFFF2146034601201A
:100720000893FFF7C9FF2146034602200993FFF70C
:10073000C3FF2146034603200A93FFF7BDFF21466E
:10074000034604200B93FFF7B7FF2146034605201D
:100750000C93FFF7B1FF2146034606200D93FFF7E8
:10076000ABFF2146034607200E93FFF7A5FFA14CE0
:10077000DFF8D8B2DFF8D8A2DFF8D8929E4FDFF8C2
:1007800080829E4E034602A902200F93FEF790FF3F
:100790009B4A9A49009440F27913002000F0BCFB78
:1007A000984C0898964A954901904FF4BD730020E3
:1007B000009400F0B1FB944C0998914A8F49019044
:1007C00040F27B130020009400F0A6FB8F4C0A98A7
:1007D0008B4A8A4901904FF4BE730020009400F0C8
:1007E0009BFB8B4C0B98864A8449019040F27D1309
:1007F0000020009400F090FB864C0C98804A7F49C2
:1008000001904FF4BF730020009400F085FB824CF0
:100810000D987B4A7949019040F27F1300200094A3
:1008200000F07AFB7D4C0E98754A744901904FF4A4
:10083000C0730020009400F06FFB794C0F98704A51
:100840006E49019040F2811300200094754C00F035
:1008500063FB6B4A694900944FF4C173002000F0B8
:100860005BFB714C1098664A6449019040F2831317
:100870000020009400F050FB6C4C1198604A5F49D6
:1008800001904FF4C2730020009400F045FB684CC7
:100890009DF84C005A4A5949019040F285130020B6
:1008A000009400F039FB634C9DF84D00544A5349C5
:1008B00001904FF4C3730020009400F02DFBBDF8AD
:1008C0004E305D484E4A4D499BB2CDE9000340F29F
:1008D0008713002000F020FB082480259DF84D3070
:1008E0002B40202B15D813B3013B1F2B1FD8DFE85B
:1008F00003F0B3721E641E1E1E571E1E1E1E1E1EF9
:100900001E491E1E1E1E1E1E1E1E1E1E1E1E1E1EDC
:100910001E3B402B00F0AF80802B08D1CDF800B0FB
:100920004FF4C97342463146002000F0F5FA013C0D
:100930004FEA5505D2D1414B0093314A2F494FF42C
:10094000D973204600F0E8FA9DF80830002B40F0FB
:10095000B9809DF81030002B40F0A8809DF8183029
:10096000002B40F09780FEE7CDF800904FF4CC7359
:1009700042463146002000F0CFFA013C4FEA5505CF
:10098000ACD1D8E72E4B0093424640F29B13314640
:10099000002000F0C1FA013C4FEA55059ED1CAE79C
:1009A00000974FF4CF7342463146002000F0B4FA6E
:1009B000013C4FEA550591D1BDE7224B00934246D9
:1009C00040F2A1133146002000F0A6FA013C4FEAA4
:1009D000550583D1AFE71C4B009342464FF4D273C9
:1009E0003146002000F098FA013C4FEA55057FF4AB
:1009F00075AFA0E7743201008C340100B825010006
:100A00000C32010090320100A4320100B832010022
:100A1000CC320100E0320100F43201000833010061
:100A20001C330100303301004833010064330100FE
:100A30008C330100BC330100E833010008350100AC
:100A400070340100AC340100CC34010014340100D6
:100A50003434010054340100234B0093424640F2E9
:100A6000A7133146002000F057FA013C4FEA550524
:100A70007FF434AF5FE7CDF800A040F29513424613
:100A80003146002000F048FA013C4FEA55057FF45A
:100A900025AF50E70798154B154A1649CDE90030A8
:100AA00040F2BD13002000F037FA5CE70598124BC6
:100AB0000F4A1049CDE9003040F2B913002000F090
:100AC0002BFA4BE703980D4B094A0A49CDE9003050
:100AD00040F2B513204600F01FFA3AE7014606201F
:100AE000FFF7EAFD034613E6EC3401005C35010034
:100AF0000C320100B82501003C3501001C35010015
:100B0000002933D001391A4B421E00EB010C0020A2
:100B100012F8011F90EA016054BF400083EA4000D0
:100B20000028ACBF400083EA40000028ACBF400072
:100B300083EA40000028ACBF400083EA4000002860
:100B4000ACBF400083EA40000028ACBF400083EA0D
:100B500040000028ACBF400083EA40000028ACBF42
:100B6000400083EA40009445D2D170470846704760
:100B7000416FDC1E30B4146869B14B1E074D411E35
:100B8000184411F8013F83EA1463884255F8233072
:100B900083EA0424F5D1146030BC70477C35010031
:100BA00038B50446FEF77CFDC4F345320546C4F370
:100BB000C0410448FEF7ACFB2846BDE83840FEF7CC
:100BC00073BD00BF214334122DE9F04104460E46A7
:100BD0001546FEF765FD0D4FC4F34532C4F3C04121
:100BE00080463846FEF794FB4046FEF75DFDFEF773
:100BF00057FDEB1C22460546314638469B08FEF75A
:100C00008BFB2846BDE8F041FEF74EBD2143341270
:100C100030B50E4D2B688FB004467BB1B4F5804FD4
:100C200008D3E21C934205D92046FFF7B9FF002004
:100C30000FB030BD4FF0FF300FB030BD01A9012023
:100C4000FEF736FD089B2B60E8E700BF5C590010FB
:100C5000F0B5104E33688FB005460C46174693B179
:100C6000B4F5804F0BD3791E21448B4207D93A4605
:100C70002146284600F0AFFF00200FB0F0BD4FF036
:100C8000FF300FB0F0BD01A90120FEF711FD089B58
:100C90003360E5E75C590010F0B5104E33688FB053
:100CA00004460D46174693B1B4F5804F0BD3791E19
:100CB00021448B4207D920463A462946FFF784FF54
:100CC00000200FB0F0BD4FF0FF300FB0F0BD01A914
:100CD0000120FEF7EDFC089B3360E5E75C5900104E
:100CE000EFF31083036072B6704700BF036883F3AD
:100CF00010887047C3680269934201D8D01A7047C0
:100D0000406810440130C01A704700BF2DE9F04719
:100D1000044682B001A81646884600F099F8E368B8
:100D200021696768E26820688B4284BFC919013174
:100D3000CB1AFD1A2369B54228BF35469A4284BFB3
:100D4000DB190133A3EB0209E268236921699A42A6
:100D500098BF7A1CD31AA2689D4202FB010014D8E6
:100D600005FB02F2414600F036FF236962682B441E
:100D7000934296BF236900235B19236101A800F009
:100D800069F8284602B0BDE8F08703FB02FA524634
:100D90004146EE1A00F01FFFA268206808EB0A0126
:100DA00006FB02F2A7EB090700F015FFBD42266122
:100DB000E4D923696268934234BF01330023E360BE
:100DC000DCE700BF2DE9F041044682B001A81546DA
:100DD0000F4600F03DF8E3682169E6688B4282BF68
:100DE000626889180131CB1A9D4228BF1D46E3680D
:100DF00022692168934284BF62680132D31AA268D3
:100E00009D4202FB061111D805FB02F2384600F0A4
:100E1000E2FE63682E449E4288BF0026E66001A879
:100E200000F018F8284602B0BDE8F08103FB02F894
:100E300042463846EE1A00F0CEFEA268216807EB63
:100E4000080006FB02F200F0C6FEE660E7E700BF1E
:100E5000FFF746BFFFF74ABF034B1A7812B172B6CD
:100E600000221A70704700BF702B0010034B1A78D5
:100E700012B962B601221A70704700BF702B0010C1
:100E800010B5044686B0FFF7E7FF23680293606859
:100E90001149124A0123CDE900108DF8173010498D
:100EA0009DF817C02023002000F036F8A0680D4CF4
:100EB0000A4A0B49019021230020009400F02CF8ED
:100EC000FFF7CAFF9DF81730002BFBD106B0BDE835
:100ED0001040FFF7CBBF00BFE03901007C390100B3
:100EE000D8390100F039010000B585B0034601A8EA
:100EF000CDE901310392FFF7C3FF05B05DF804FBB4
:100F000000B583B0002300931A461946184600F036
:100F1000A1FA03B05DF804FB10B5144684B00020BC
:100F2000019300F05DF92178019B69B1601C04E038
:100F30002F2904D010F8011B31B15C29F8D10446E7
:100F400010F8011B0029F8D122460849002000F0C2
:100F50001BFE07AB0699039303AA002000F0C0FB19
:100F60000349002000F03CF904B010BD003A010034
:100F7000083A01002DE9F04F954E357883B00446CC
:100F80008B4691460DB3EFF311834FF0200181F3AF
:100F9000118804EB440706EBC7070093D7F82C80B1
:100FA000B8F1010F4FEA440500F0AB80B8F1020F31
:100FB00066D0B8F1000F3CD04FF00008009B83F3DF
:100FC0001188404603B0BDE8F08F0320306105F082
:100FD000FF0270617F498048B1614FF48065F06124
:100FE00035627E48B2627262F262316610217066CA
:100FF000B1663267F2667267BFF35F8F4525472798
:101000004FF0530C86F800C0522075705421B77011
:10101000F770357120257071B571F0713172717290
:10102000B272F27232737273B273F273BFF35F8F84
:10103000A9E7BA6AD7F824A052459CBF396A52186A
:10104000013AA2EB0A029145B8D8254406EBC50542
:1010500001342F6AA7EB0A0804EB4404C14506EBF0
:10106000C40680F0A0807068594650444A4600F09B
:10107000B2FDBFF35F8F09EB0A036B62C8469DE7C1
:10108000013404EB44047D6A4FEAC40A4FF00008BF
:10109000BB6AAB4203F1FF3426D93A6A641B4C4564
:1010A00006EB0A012346A2EB050428BF4B469C42EF
:1010B000486828BF1C4628445946224600F08BFD4C
:1010C0003B6A25449D42A044A344A9EB040910D0E7
:1010D000BFF35F8F7D62B9F1000F3FF46FAFBB6A62
:1010E000AB4203F1FF34D8D83A6A1344013B5C1B8E
:1010F000D5E7BFF35F8F00257D62B9F1000FC7D13F
:101100005CE7BA6AD7F824A052451FD902F1FF382C
:10111000A8EB0A083F6AC84528BFC846A7EB0A02E1
:10112000904521D2631C03EB430306EBC3035946EE
:1011300058684246504400F04EFDBFF35F8F2C4488
:1011400006EBC4060AEB0802726237E73F6A02EB5D
:10115000070808F1FF38A8EB0A08C84528BFC846A9
:10116000A7EB0A029045DDD304F1010909EB490917
:1011700006EBC9095946D9F804000192504400F021
:101180002AFDA8EB0707019AD9F8040057440BEB96
:1011900002013A4600F01FFDBFF35F8F2C4406EBBF
:1011A000C40677620AE7706809EB0A0442465946AA
:1011B0005044E41B00F00FFD70680BEB0801224661
:1011C00000F009FDBFF35F8F6C62C846F6E600BF12
:1011D000605900100C3A0100185A0010085A00100B
:1011E0002DE9F04F974E83B0044608468B46FBF737
:1011F000F1FE31780090814609B3EFF311834FF08F
:10120000200181F3118804EB440706EBC707009324
:10121000D7F82C80B8F1010F4FEA440500F0AB80FD
:10122000B8F1020F66D0B8F1000F3CD04FF00008C3
:10123000009B83F31188404603B0BDE8F08F032084
:10124000306101F0FF0270617F498048B1614FF465
:101250008065F06135627E48B2627262F262316628
:1012600010217066B1663267F2667267BFF35F8FF6
:10127000452547274FF0530C86F800C05220757063
:101280005421B770F770357120257071B571F07108
:1012900031727172B272F27232737273B273F2732C
:1012A000BFF35F8FA9E7BA6AD7F824A052459CBF65
:1012B000396A5218013AA2EB0A029145B8D825447E
:1012C00006EBC50501342F6AA7EB0A0804EB4404BA
:1012D000C14506EBC40680F0A080706859465044B2
:1012E0004A4600F078FCBFF35F8F09EB0A036B629C
:1012F000C8469DE7013404EB44047D6A4FEAC40A02
:101300004FF00008BB6AAB4203F1FF3426D93A6ABA
:10131000641B4C4506EB0A012346A2EB050428BFDB
:101320004B469C42486828BF1C46284459462246E2
:1013300000F051FC3B6A25449D42A044A344A9EB24
:10134000040910D0BFF35F8F7D62B9F1000F3FF445
:101350006FAFBB6AAB4203F1FF34D8D83A6A13448B
:10136000013B5C1BD5E7BFF35F8F00257D62B9F1C0
:10137000000FC7D15CE7BA6AD7F824A052451FD93D
:1013800002F1FF38A8EB0A083F6AC84528BFC846E3
:10139000A7EB0A02904521D2631C03EB430306EB43
:1013A000C303594658684246504400F014FCBFF34A
:1013B0005F8F2C4406EBC4060AEB0802726237E723
:1013C0003F6A02EB070808F1FF38A8EB0A08C84596
:1013D00028BFC846A7EB0A029045DDD304F10109F6
:1013E00009EB490906EBC9095946D9F804000192ED
:1013F000504400F0F0FBA8EB0707019AD9F804006D
:1014000057440BEB02013A4600F0E5FBBFF35F8F58
:101410002C4406EBC40677620AE77068AAEB07045F
:101420004246594650444C4400F0D5FB70680BEBE3
:101430000801224600F0CFFBBFF35F8F6C62C84605
:10144000F6E600BF605900100C3A0100185A00106F
:10145000085A00102DE9F041344C26780F4626B387
:1014600002285FD8EFF311864FF0200181F3118835
:1014700050B90246104404EBC004069BE36286F3B5
:1014800011880020BDE8F081451C05EB4505ED0005
:1014900000EB4001675104EBC10125446A600B6217
:1014A00000238B6242004B62E4E706F0FF0503264F
:1014B00026611F4966614FF4806C1E4EA161E66192
:1014C000C4F820C01C4EA5626562E5622166102149
:1014D0006666A1662567E5666567BFF35F8F4FF0B7
:1014E000450C4FF0470E4FF0530884F80080522609
:1014F00084F801C0542184F802E084F803E084F801
:1015000004C04FF0200C667184F806C0E6712172A9
:101510006172A572E57225736573A573E573BFF3F8
:101520005F8F9DE74FF0FF30ACE700BF60590010C0
:101530000C3A0100185A0010085A00102DE9F84F13
:101540001546A942DDF828B00B9A0F460646984684
:10155000C0F0BA800B464FF00109B3FBF5F39D4292
:1015600009F10109F9D9C14538BFC14612F0010A94
:1015700002D1BBF1000F72D1F16800296DDBB268B6
:10158000B8F1010F4FF0010406D908F1FF38B8F1A6
:10159000010F05FB04F4F8D8B7FBF4F39D4205D81E
:1015A00005FB04F4B7FBF4F39D42F9D9DFF82C8175
:1015B0009E4608E0002925DBB4FBF5F3AC4221D3BD
:1015C000B7FBF3FE1C467068531C8342BC4604FB09
:1015D0001E770BD8BCFBF4FC316818F80C0088545B
:1015E000F1687068B3600131F1601A468242E1D15E
:1015F00031683069FFF7BEFCB368984259D04FF0AC
:10160000FF33F360BAF1000F27D0BBF1000F24D0F5
:10161000202500245F4603E0F368002B1DDBE7B1C3
:10162000B94507F1FF3718D2D6E90123591C914279
:1016300007D83268D554F268B1600132F26072683E
:101640000B469A42E8D131683069FFF793FCB368E2
:1016500098423CD04FF0FF33F360BDE8F88F93071A
:101660002CD42024CDF828B0A3460A9C03E0F168CE
:101670000029F2DB6CB3A1452ED2D6E90123591C17
:10168000914204F1FF3408D8326802F803B0F268DE
:10169000B1600132F26072680B469A42E7D131685C
:1016A0003069FFF767FCB3689842D3D10023B36079
:1016B000DDE70023F168B3601A467BE7B8F1000F5D
:1016C0000CBF30242024CDE74FF001094BE7B46074
:1016D000A2E71A46A34653E7A3464DE7183A01008E
:1016E0002DE9F04F9BB083464023002090460AAA84
:1016F000CDE90523CDE9080BDFF86CA407900C4673
:1017000014F8013BABB1252B2DD0DDE906514A1C65
:10171000AA4218D8059843540898069B01309A426B
:10172000CDE9072012D000281ADB14F8013B002B6A
:10173000E9D1002814DD079A002A40F0A681104460
:101740001BB0BDE8F08FA942DAD10A460599099885
:10175000FFF710FC079B984200F02B814FF0FF3001
:101760001BB0BDE8F08F0026254614F8013BA3F11D
:1017700023020D2A08D8DFE802F04607070707070B
:101780000707430749070740A3F13002092A4FF032
:1017900000040BD804EB840403EB440415F8013F68
:1017A000A3F13002092AA4F13004F3D92E2B00F062
:1017B0000481002701E015F8013F03F0FB02682ACD
:1017C000F9D0252B00F01081583BDAB2202A2ED810
:1017D000202B2CD8DFE803F01D2B2B2B2B2B2B2BB6
:1017E0002B2B2BBC892B2B2B2B2B2B2B2B2B2B2B5A
:1017F000502B2B322B2D2B2B1D0046F00206B3E76E
:1018000046F00406B0E746F00806ADE746F00106EC
:10181000AAE7D8F800003B46102201680430CDE961
:101820000046C8F8000005A8FFF788FE08986C1C61
:1018300079E7D8F800003B460A22EEE7D8F80030F6
:101840001A1DC8F800201E68002416F8017B002F1E
:10185000EDD0DDE906135A1C8A4200F29B800599FF
:10186000CF540898069B01309A42CDE9072000F03A
:1018700095800028E9DADAE7D8F800301E680433EA
:101880000F2EC8F8003003D933461B090F2BFCD8A4
:10189000079A4FF08054002706E000284FEA1413FF
:1018A000C5DB0F2CC3D91C46069BB6FBF4FE511CAE
:1018B000994204FB1E660AD8AA4B13F80E00059B3A
:1018C00098540898069B079101300A4608909A425E
:1018D000E3D105990998FFF74DFB079B98427FF4E8
:1018E0003DAF089807970022D7E7D8F80030D3F823
:1018F000009089EAE972A2EBE9720433092AC8F878
:1019000000304FF0010308DD11466329AAFB0202F3
:1019100003F101034FEAD202F6DCBB4238BF3B467B
:10192000002C72D1B9F1000FC0F2B780720700F13C
:10193000CB8006F00302022A00F0CF8005A8CDE993
:1019400000463B4649460A22FFF7F8FD08986EE735
:10195000DDE90632D8F80040211DC8F80010511CFE
:10196000994208D8059B206898540898069B0791CF
:1019700001300A4608909A427FF459AF05990998B8
:10198000FFF7F8FA079B98427FF4E8AE0023089827
:1019900007934CE78B427FF458AF1A460599099894
:1019A000FFF7E8FA079B98427FF4D8AE08980794AF
:1019B0005FE7002308980793B5E66B78A3F1300240
:1019C000092A05F101054FF000073FF6F6AE07EBD7
:1019D000870703EB470715F8013FA3F13002092AF7
:1019E000A7F13007F3D9E8E6DDE90612541C8C4272
:1019F00007D805998B540898069907940130224618
:101A000008908A42BAD06C1C8DE6B9F1000F2BDB2E
:101A1000700729D4B10701D5002F83D016F0010239
:101A200002927FF47FAF002C3FF47CAF03951D46FC
:101A3000A54216D2DDE906014A1C824204F1FF34B8
:101A400014D805984FF0200343540898069907923C
:101A500001308A4208900CD00028C0F28E80002C01
:101A6000E6D12B46039D5DE7013CD3E78142F6D1E9
:101A70000A4605990998FFF77DFA079A90427FF484
:101A80006DAE029B08980793E6E70AA95846FFF750
:101A900071FADDE90720104452E6DDE9062101F183
:101AA000010C9445C9F100094BD8059A2D205054DA
:101AB0000898069ACDF81CC001309445089043D090
:101AC0000028FFF6B4AE34E7DDE9062101F1010C90
:101AD00094454BD8059A2B20E9E7002F7FF42EAFD1
