:10C00000F0FB051065C2000011C2000045C300002E
:10C0100015C2000017C2000019C200001BC20000B8
:10C020000000000000000000000000001DC2000031
:10C030001FC200000000000021C2000023C2000057
:10C0400025C2000027C2000029C200002BC2000048
:10C050002DC200002FC2000031C2000033C2000018
:10C0600035C2000037C2000039C200003BC20000E8
:10C070003DC2000061C8000041C200000DC80000C0
:10C080005DC8000047C2000049C200004BC200006A
:10C090004DC200004FC2000099C8000053C200000A
:10C0A00055C2000057C2000059C200005BC2000028
:10C0B0005DC200005FC2000061C2000063C20000F8
:10C0C000334934480A1A02D0072291438D46324937
:10C0D00032480A1A06D00722914381F309880222C6
:10C0E00082F314882E482F492F4A00F03FF82F483A
:10C0F0002F49304A00F03AF82F483049304A00F0D2
:10C1000035F830483049314A00F030F8304831498C
:10C11000314A00F02BF831483149324A00F026F814
:10C1200031483249324A00F021F83248324900227F
:10C1300000F027F831483249002200F022F8314857
:10C140003149091A02F0D0F91F482049884205D028
:10C150000268043003B4904703BCF7E7002086462A
:10C16000EC4600200021294A9047FEE7884207D08C
:10C17000521A05D0037801300B700131013AF9D120
:10C180007047884202D002700130FAE77047000021
:10C19000F0FB0510F0F70510F0FF0510F0FB05109F
:10C1A00058EA0000000000102C020010A8C2000095
:10C1B000A8C20000FCE4000058EA000000000010E3
:10C1C00000000010FCE40000FCE40000FCE40000BF
:10C1D000FCE40000FCE40000FCE40000FCE40000DF
:10C1E000FCE4000055EA000084EC00002C1A00106A
:10C1F0002C1A00102C0200102C1A00102C1A0010FF
:10C200002C1A0010301A0010301E0010C5C6000095
:10C21000FEE7FEE7FEE7FEE7FEE7FEE7FEE7FEE7F6
:10C22000FEE7FEE7FEE7FEE7FEE7FEE7FEE7FEE7E6
:10C23000FEE7FEE7FEE7FEE7FEE7FEE7FEE7FEE7D6
:10C24000FEE7FEE7FEE7FEE7FEE7FEE7FEE7FEE7C6
:10C25000FEE7FEE7FEE7FEE7FEE7FEE7FEE7FEE7B6
:10C26000FEE7FEE7DFF83000002805D0DFF82C10ED
:10C270000840DFF82C1008600A48854600F00AF8EC
:10C280004EF68850CEF20000016851F47001016052
:10C29000FFF716BF7047000000C0000080FFFF1FBF
:08C2A00008ED00E0F0FF0510BD
:10C2A800BFF34F8F0549064BCA6802F4E062134397
:10C2B800CB60BFF34F8F00BFFDE700BF00ED00E08C
:10C2C8000400FA052DE9F04300EB4134DFF86890EB
:10C2D80085B04E0BC4F3C047C4F345380025ABB254
:10C2E8009E4209D8104B00930020104A1049AD23F4
:10C2F80001F004FD002013E042463946484600F0AC
:10C308003DFE01350028EAD00A4B0093CDE90140F3
:10C31800064A07490020A72301F0F0FC4FF0FF3040
:10C3280005B0BDE8F08300BF8AE50000FCE400002A
:10C338004FE5000057E500002143341208B564209A
:10C3480001F0AEFCFFF7ACFF002108B5084600F08D
:10C358007DFD0C4800F04EFD00F06EFD4FF480703E
:10C3680001F0BEF8084B4FF480021A604FF04040CD
:10C3780001F09CF8012001F099F8BDE8084000F0B0
:10C3880099BF00BFF8E7000000E100E008B500F041
:10C3980095FC4FF4807001F0ADF80A4B4FF4800221
:10C3A800C3F88020BFF34F8FBFF36F8F4FF040402B
:10C3B80001F07CF8002001F079F8BDE8084000F0B1
:10C3C8007DBF00BF00E100E030B5214D8BB00024F7
:10C3D8006023CDE901340090122329462046CDE997
:10C3E8000534CDE90344CDE90744099401F0D0F9B7
:10C3F80022462146286801F0D3FB6946286801F0E7
:10C40800D3FA144BDA6A64F30412DA62214627205D
:10C4180000F024FE2146282000F020FE0E4B4FF4A9
:10C4280000421A601021286801F094FA0B490C4860
:10C4380000F03AFA09490B4800F04AFA0A4800F0B5
:10C4480051FA2968094800F039FA0BB030BD00BF2D
:10C458006014001000C0014000E100E04C0C001026
:10C46800D1CB000063CB000085CC000049CC000094
:10C478002DE9F043058985B0AD0802950B68019355
:10C488000646284B00930C4690462749274A40F217
:10C498007923002001F032FC378917F003070CD00C
:10C4A800234B0093214A204940F27E23002001F0CB
:10C4B80025FC012005B0BDE8F0832168B8F80030FC
:10C4C80001F58031C1F345394B4512D219484A4626
:10C4D800C1F3C04100F052FDA8F8009048B1164BD6
:10C4E80001900093114A104940F28E23384601F01A
:10C4F80005FC226871680F482B4602F5803200F06F
:10C5080041FD50B10D4B01900093084A064940F295
:10C518009723002001F0F2FBCBE7236803EB8503A8
:10C528002360C7E790E500004FE50000FCE4000049
:10C53800BAE500002143341200E6000029E60000B5
:10C54800F0B58FB000F0A8FB3B4B3C4F3C4D93E857
:10C55800070005238DF82030032300248DF82C30A4
:10C5680005AE384B049486E8070020460093344A09
:10C578003549ADF80E4040F23523CDE90944CDE9FF
:10C588000C4401F0BBFB20462F4C08B32F4B009303
:10C5980000204FF40F732A46214601F0AFFB08A88C
:10C5A80000F0A6F9304600F055FAD0B1284B0190BA
:10C5B8002A460093214640F24923002001F09EFBC1
:10C5C800244801F07DFB244B00229A60DA60DDE705
:10C5D800009740F241232A46214601F08FFB0BA821
:10C5E800DEE79DF81430042B11D11C4B00932A462A
:10C5F80040F25723214601F081FB0DF10E0204A9F8
:10C608003046FFF735FF003818BF0120BDE7062B7D
:10C6180009D1134B00930A4A0B4940F2612301F0F8
:10C628006DFB0FB0F0BD0F4B00932A4640F2662316
:10C63800214601F063FBA9E7ECE7000072E6000081
:10C64800FCE4000045E600004FE5000056E6000067
:10C658008EE6000068B302004C0C0010ADE6000046
:10C66800C6E60000E0E6000013B54FF480330F4A39
:10C678005C680F4B0F490093002040F2C5230194DA
:10C6880001F03CFB0A2001F00BFBFFF77FFE631C67
:10C6980002D044F001042047074800F029F964203B
:10C6A80002B0BDE8104001F0FBBA00BFFCE4000096
:10C6B80002E700004FE500001400001007B501F084
:10C6C80011FB3D4E3D4B3E4A31681278184601F049
:10C6D800D5FE0378AA2B01D0FFF7C6FF39493A489F
:10C6E8004FF4206200F02EFAFFF72EFE374B384A3F
:10C6F800384900930020D92301F000FB364B01256F
:10C708001D70364B4FF4E1301860FFF75DFE4FF4B3
:10C71800FA6001F0D5FA324B2D4A2E4900930020D9
:10C72800E62301F0EBFA2F4B294A2A49009300200F
:10C73800E72301F0E3FA2C4800F0DAF82B4B244AFF
:10C74800244900930020EA2301F0D8FA284800F091
:10C7580081F9044660B1274B1D4A1E490093002009
:10C76800ED2301F0CBFA642001F09AFAFFF798FD67
:10C77800214B174A17490093F22301F0BFFA1F4BC8
:10C788001D70FFF7DDFE4FF400513068FFF79AFD8A
:10C798000A2001F085FA2146284600F069FE184B68
:10C7A80000930B4A0B49FB23204601F0A7FA01200E
:10C7B80000F0B0FEFBE700BF000000105C0C0010AA
:10C7C80004000010490200104C0C00101BE7000088
:10C7D800FCE400004FE500002C02001030020010BD
:10C7E8003EE7000060E700001400001085E7000045
:10C7F80008000010ABE70000C6E700006414001052
:10C80800DDE700001FB5114C012202A9206801F0E4
:10C818002FFA0299206801F0B1F90299206803AA59
:10C8280001F052F8029BDB060ED5002320688DF834
:10C83800073001220DF1070100F0DFF920B19DF862
:10C848000710034800F0A8F904B010BD60140010E8
:10C858004C0C00107047000008B500204FF48071A0
:10C8680000F010FD074A1378042B0AD81378D9B2C0
:10C878000133DBB21370044BD3F84421034B43F864
:10C88800212008BD4802001000800040340200103A
:10C8980008B54FF4807000F037FE024A1368013380
:10C8A800136008BD84140010024B1960024B186015
:10C8B800704700BF7814001074140010024B196000
:10C8C800024B1860704700BF801400107C140010E1
:10C8D800024B1960024B1860704700BF6C140010BF
:10C8E80068140010014B1860704700BF70140010E6
:10C8F8002DE9F0472D4E2E4F0446002333703B7030
:10C9080022782C4830F812203270110A39702189A7
:10C9180099423CD8284D2B682BB1284A033110681E
:10C92800C1F3072198472B682BB12189234A03318A
:10C938001068C9B298472B681BB1204A2178106843
:10C9480098476368ABB123899BB1DFF870A04FF0BB
:10C9580000082A6832B16168DAF800001FFA88F323
:10C96800C95C9047228908F101081FFA88F39A42A6
:10C97800EFD82B681BB1114A3978106898472B6893
:10C9880093B10E4A31781068BDE8F04718476268DD
:10C998003D78D25C6A40013330F8125032783570F5
:10C9A80082EA15223A70B3E7BDE8F08766140010F2
:10C9B80065140010200000107C1400108014001072
:10C9C80013B50E4C00238DF806308DF80730236818
:10C9D80023B10B4A0DF1060110689847236823B16B
:10C9E800074A0DF10701106898479DF806009DF861
:10C9F800073043EA002002B010BD00BF74140010D5
:10CA0800781400102DE9F0410F4E346805460CB13A
:10CA1800A04704460D4FDFF8388033680BB19847BC
:10CA280003461B1BB3F5FA7F02D30120BDE8F08152
:10CA38003B6833B1D8F8000098478542EDD800200C
:10CA4800F4E71846F9E700BF7014001068140010E6
:10CA58006C1400102DE9F347044600285DD002202D
:10CA6800FFF7D0FF00285AD1FFF7AAFF002858D0B7
:10CA78006389C51E9D4256DCFFF7C4FF002854D1C8
:10CA8800DFF8B8802A4E2B4FD8F800303070387055
:10CA980023B1294A0DF10701106898479DF807301E
:10CAA80023703A78DFF89890534039F81320337898
:10CAB800258183EA12233B706368327063B9FFF7FC
:10CAC8007FFF3A78337843EA0223181A18BF012007
:10CAD800000102B0BDE8F0876389002BEFD0DFF8D2
:10CAE80058A0002515E0D8F8003023B1DAF8000086
:10CAF8000DF1070198473B789DF80720534039F816
:10CB080013103378317083EA11233B7063685A55E8
:10CB180001352389AB42E6D8D1E70120D9E7822045
:10CB2800D7E70420D5E74820D3E74220D1E700BF64
:10CB380066140010651400107814001074140010A6
:10CB480020000010034600202BB1C3E900129860B2
:10CB5800D860104670471A46FBE758B1C268836828
:10CB68009A42C36802D38068181A7047416882687D
:10CB78000B44981A704770B1C26883689A4206D30A
:10CB8800C268416883680B44013B981A7047836800
:10CB9800C068013B181A704738B50D46044608B9F5
:10CBA800002038BDFFF7E7FF0028F9D0E3682268C6
:10CBB800D554E3680133E360E26863689A4224BFAE
:10CBC8000023E3600120ECE738B50D46044608B9B8
:10CBD800002038BDFFF7C1FF0028F9D0A3682268FC
:10CBE800D35C2B70A3680133A360A26863689A4280
:10CBF80024BF0023A3600120EBE710B586B0002313
:10CC0800CDE90212012401A9CDE900340493CDF83D
:10CC180014D000F0E1FD009806B010BD7FB50023E8
:10CC2800CDE90033CDE902124FF0FF3301A9049397
:10CC3800CDF814D000F0D0FD009807B05DF804FBE3
:10CC480007B501228DF807100DF10701FFF7E6FF80
:10CC580003B05DF804FB0000064B10B51B68064CDA
:10CC68000022C4E9002300F02BFC2368184320604D
:10CC780010BD00BF841400108814001008B5FFF719
:10CC8800EBFF044940F6B832D1E90001002301F076
:10CC98002DFB08BD8814001007B50DF1060000F043
:10CCA8001DF848B90DF1070000F04EF8B0FA80F011
:10CCB800400903B05DF804FB0020FAE707B50DF161
:10CCC800070000F06DF838B99DF80700431E584278
:10CCD800584103B05DF804FB0020FAE773B5164D20
:10CCE8006B69D907064607D4002201230720134998
:10CCF8000A70337002B070BD114A1249936A43F04A
:10CD080000439362AB6943F01003AB610124202315
:10CD180000941A4642F2107000F072F948B9AB69F3
:10CD28005A06E1D5AB69C3F340129B06DCD503462E
:10CD3800DDE700222346DAE70000024090140010E5
:10CD48000010024018000240134B1B7873B50646CA
:10CD5800CBB14FF0402501246B6B104943F0010320
:10CD68006B63042300941A4642F2107000F048F9ED
:10CD780060B96B6B9B070BD56B6BC3F38003634088
:10CD8800337002B070BD01230720F9E72346F7E7A7
:10CD980023462046F4E700BF9014001034400040BA
:10CDA80030B585B0054600F089FA002103900F4898
:10CDB80000F040F9039800F085FA0D4B0B499A6A88
:10CDC80001246FF3DF729A6242F21070009400231C
:10CDD800042200F015F930B94FF040235C6BC4F31E
:10CDE800800484F001042C7005B030BD344000404C
:10CDF8000010024037B5044600F060FA0D4D01906E
:10CE08002B6823F440732B60019800F05BFA637879
:10CE1800A2781B0203F4407343EA4203227812010A
:10CE2800D2B2134343F4801343F4806300202B6091
:10CE380003B030BD00800140034A136843F001038A
:10CE480013600020704700BF008001403A4B1A6809
:10CE580010B50C4612B9394A12681A60092869D8FF
:10CE6800DFE800F0051C152A220D423C48614FF00E
:10CE78004023472200205A619861586110BD4FF045
:10CE8800402347225A6101229A610020F5E74FF0BA
:10CE98004023DA686FF34102DA600BE04FF0402379
:10CEA800DA686FF30002F7E74FF04022D36843F0E7
:10CEB8000203D3600020E1E7214BDA68D2B2212ACD
:10CEC80001BFD3F82021012161F30922C3F82021F1
:10CED8004FF04022D36843F00103EAE74FF04022C5
:10CEE800D36843F08003E4E74FF04023DA686FF338
:10CEF800C712D1E7124BDA68D2B2212A09D1D3F886
:10CF0800202142F44072C3F820214FF47A5000F0F7
:10CF180067F834B123684FF0402243F001031362ED
:10CF2800C8E7084BF7E74FF040231A6A6FF300028F
:10CF38001A62BFE70620A1E79414001000F0FF4F23
:10CF48000000024001B8250090B14FF04022094985
:10CF5800936913F0010F084B08BF0B460360D369B0
:10CF680003F00102C3F340034260037200207047DC
:10CF780006207047006CDC0200366E01004B184733
:10CF880051000008DFF854C0F7B501EB8307674587
:10CF98000546104F16461C4616D1012B0FD80E4BCE
:10CFA80004F18044D3F8FC3F0193013C06EB840272
:10CFB8000123084C01A92846A04703B0F0BD013B56
:10CFC800B8470028EBD0F8E7BC4603B0BDE8F0400E
:10CFD800604700BF5500000800F00510000006106B
:10CFE8004FF040235B6B5B0746BF40000E230B23CB
:10CFF800984202D9C01A014B184770479D00000893
:10D008002DE9F0419DF8184005460E46174698460A
:10D0180033683B4024B1434504D10020BDE8F0818A
:10D028004345FAD125B11020FFF7DAFF013DEFE7BC
:10D038000420F3E7014B43F00103184720020010D6
:10D0480012B4EFF3108472B601680268036884F3BF
:10D05800108811BC01604260836070472DE9F04F71
:10D06800312885B0044600F2E48001F0070011F091
:10D07800E007C1F3C1054FEAC0031BD0C1F3421258
:10D08800961D06F00706032E43F0010308D8023A5E
:10D0980043EA82136E4A125DD7070BD46D4834E019
:10D0A800C02F03D1142C05D06B482EE0202F01D1BE
:10D0B800142CF3D045B1012D2AD1654A125D96078B
:10D0C80040F1B98043F04003644A155D05416D00A5
:10D0D80005F002051D43624B1B5D834223D1C1F35A
:10D0E8000243072B00F0A980C1F3C14242EA0312B0
:10D0F8005C4B002603EB840313F8010B904200F00D
:10D108009E800136042EF7D1574805B0BDE8F08F50
:10D11800022D40F090804E4A125D550740F18B80F9
:10D1280043F08003D0E7C1F3003345EA4305C1F378
:10D138008036C1F3812346EA43068B0A03F00803CD
:10D148001E43C1F3072303F00C02042A18D0CA1E99
:10D15800D2F1000B4BEB020B13F0600F04BFC1F3CD
:10D16800C03363F30006C1F3012102290DD003295E
:10D1780009D0012901D145F004054FF0000E06E061
:10D188004FF0010BE8E745F004054FF0010EE00011
:10D1980000F0180024F003034FEA840C0CF01C0C78
:10D1A80003F1804A01934FF00F080EFA00F3FF27AE
:10D1B80008FA0CF887400093854006FA0CF600F050
:10D1C8007DF84FEA5409294A019B2949039029F01F
:10D1D80003090AF5803A6FEA0808FF43BBF1000F1C
:10D1E8000BD004F01F0CE008012404FA0CF400F042
:10D1F8000400DFF88CC040F80C401E487324046615
:10D20800DAF800403C402C43CAF8004059F8014085
:10D2180004EA0804344349F801409958009C39400D
:10D228002143002499500466039800F04BF82046E7
:10D238006BE7062069E7104867E7104865E7C1F320
:10D248004053760046EAC3064FF0000B8BE700BF59
:10D25800FBE7000000010008010100082DE80000BC
:10D2680027E900005FE8000004010008E000014031
:10D2780040000140000001400201000803010008CD
:10D28800B400014073B58C0CA40406460D466CB975
:10D2980000F014F8064B0190C3F80862C3F818525E
:10D2A800019800F00FF8204602B070BD0520FBE79A
:10D2B80000000140EFF3108062B67047EFF3108072
:10D2C80072B6704780F310887047000073B5054642
:10D2D800FFF7F4FF0C210090144A154C01FB05F0F0
:10D2E800A36815582B43A36016180098FFF7EAFFA8
:10D2F800A020FFF775FEA3697668334203D1A0200A
:10D30800FFF76EFEA369A36933420CD1FFF7D6FF7E
:10D318000190A36823EA0503A3600198FFF7D2FFF1
:10D32800012002B070BD0020FBE700BF5CE90000EF
:10D338000010024073B50446FFF7C0FF0C210190AE
:10D34800194A1A4D01FB04F0AB68165823EA060384
:10D35800AB6014180198FFF7B5FFA020FFF740FE57
:10D36800AB696468234203D0A020FFF739FEAB699C
:10D37800A86920400ED0082CAB680DD0102C0ED018
:10D38800042C0FD140F2815213420BD01E4214BF1D
:10D398000120002002B070BD13F00E0FF5E713F066
:10D3A800700FF2E70120F5E75CE900000010024089
:10D3B80010B50024C0E90044C0E90243C0E90421D3
:10D3C80010BD036973B5044603FB02F50E46FFF76B
:10D3D80075FFD4E902239B1AAB4201901BD20024AB
:10D3E8000198FFF76FFF204602B070BD1EB1626959
:10D3F8002368315CD1542368E2680133B3FBF2F14E
:10D4080002FB113323600130A842EFD1A368034423
:10D41800A3600124E4E70020F6E773B50369044636
:10D4280003FB02F50E46FFF749FFA3680190AB42E4
:10D438001BD200240198FFF745FF204602B070BDBB
:10D448001EB162696368D35C33546368E268013370
:10D45800B3FBF2F102FB113363600130A842EFD154
:10D46800A3681B1AA3600124E4E70020F6E7000084
:10D47800032817D8DFE800F002080D114FF08043A9
:10D48800D4229A60002070474FF080431B225A60D4
:10D49800F8E7054B0020186070474FF080430122E1
:10D4A8005A61EFE70620704700F0FF4F034A034632
:10D4B800D2F84001C2F84031704700BF00800040F8
:10D4C8001FB5064801A9FFF7BBFDDDE9013083421E
:10D4D80018BF039805B05DF804FB00BF4481004005
:10D4E800034AD2F800331843C2F80003704700BF5C
:10D4F80000800040034AD2F8003323EA0000C2F853
:10D508000003704700800040014BC3F808037047D0
:10D518000080004037B50446FFF7D0FE234A01904B
:10D52800136801331360002C3BD0214CD4F85032DF
:10D53800DB0736D41F4B1A6812B91F4A12681A60E3
:10D54800D4F850531D4BC5F30542C5F30901093200
:10D55800183140F2FF302B40814294BF0B43034304
:10D568003F2A28BF3F2243EA0243C4F850334FF40E
:10D57800A070FFF735FD124AC4F85053136943F001
:10D5880004031361BFF34F8F0E4B1A680E4B1A60DA
:10D5980030BFBFF36F8F019803B0BDE83040FFF78D
:10D5A80091BE074A136923F00403EAE798140010B0
:10D5B800000002409414001000F0FF4F00FCC0FF70
:10D5C80000ED00E00000FF5F9C140010406A00F5C9
:10D5D80080201C3030B500030024A24203D1002073
:10D5E80003B11C6030BD8569ED06F8D4056815F4F3
:10D5F800706F02D10D550134EFE74FF00060EFE78F
:10D60800406A00F580201C3030B500030024A24297
:10D6180002D08569AD0602D52BB9002030BD0D5D5D
:10D6280005600134F3E71C60F7E7000030B58BB004
:10D638000546FFF743FE6B460190202202A92846C3
:10D64800FFF7C4FF044640B9009A05F14800FFF708
:10D65800B8FE054B002808BF1C460198FFF732FEAC
:10D6680020460BB030BD00BF01000008F0B5446A89
:10D6780085B00646FFF722FE04F580231C3303908D
:10D688001C0306F12C07A3699B0606D401220DF1A1
:10D6980007013846FFF7C1FE30B900250398FFF7A8
:10D6A80011FE284605B0F0BD02AB01220DF10701BD
:10D6B8003046FFF7A5FF05460028E4D0EEE7000056
:10D6C80037B51C46054640B30368154823F07E432A
:10D6D800834222D10CB10023236092B195F82830FF
:10D6E80093B1D5E90D031B1A9A4228BF1A4605F1D2
:10D6F8002C000192FFF765FE2846FFF7B7FF0246A8
:10D7080030B1104603B030BD01AB2846FFF778FFB3
:10D718000CB1019B23600022F3E70222F1E700BF6E
:10D72800069EEA01F0B5144685B01F46054650B37B
:10D738000368164A23F07E43934224D10FB1002395
:10D748003B60B4B195F84430B3B128460191FFF776
:10D758006DFF064660B92A6D0199A24228BF22468C
:10D7680005F148000392FFF758FE0FB1039B3B6099
:10D778003446204605B0F0BD03AB22462846FFF7E5
:10D7880025FF0646F1E70224F3E700BF069EEA01FB
:10D798000128F0B516D8B9B10D4D682444432A19AB
:10D7A800D378C3F3000713F001030FD1506228594F
:10D7B80000F07E4607483043285117711366184613
:10D7C8000A60F0BD0520FCE70620FAE70720F8E725
:10D7D800A0140010069EEA012DE9F74F0C680646D2
:10D7E800002C38D1D1E90385D1E9019BB8F1000FAC
:10D7F80018D12B465A46494603B0BDE8F04FFFF70B
:10D808005FBFBBF1000F09D01020FFF7E9FBB8F1AB
:10D81800FF3F00D00137BBF1000F06D1002D4ED1DC
:10D82800002015E02746A246F5E7B845F6D901AB32
:10D838005A4609EB04013046CDF804A0FFF740FF33
:10D84800019B1C44ABEB030B0028DAD005B12C601C
:10D8580003B0BDE8F08F012C33D1D1E90385D1E9BC
:10D86800019BB8F1000F26D12B465A46494603B012
:10D87800BDE8F04FFFF756BF01AB5A4609EB04016C
:10D888003046CDF804A0FFF74DFF019B1C44ABEBDD
:10D89800030B0028DAD1BBF1000FBFD01020FFF72F
:10D8A8009FFBB8F1FF3F00D00137BBF1000FB5D0A7
:10D8B800B845E1D8B2E700242746A246F5E72C6030
:10D8C800AEE70720C4E70000F8B503681646204A0B
:10D8D80023F07E43934205460F462AD111F0500F9C
:10D8E800446A04D1B9060BD49EB9002007E090F829
:10D8F8004430002BF6D0FFF799FE0028F2D0F8BD8F
:10D9080095F82830BBB12846FFF7B0FE0028EBD0C9
:10D91800F5E795F8283083B16B6B002BE5D104F55A
:10D9280080231C331B039B691A07DED40123336051
:10D93800DBE70220E3E7002ED7D004F580231C3371
:10D948001B039B691B07F1D500203060D7E700BF98
:10D95800069EEA010368084A23F07E43934209D1F0
:10D96800436A03F580231C331B0300209A6B114381
:10D978009963704702207047069EEA010368094AC6
:10D9880023F07E4393420AD1436A03F580231C3374
:10D998001B0300209A6B22EA010199637047022059
:10D9A800704700BF069EEA012DE9FF4103686D4FED
:10D9B80023F07E43BB4205460E4640F0CF80446AC2
:10D9C80004F580241C3424030023236390F8643076
:10D9D800052B00F2C580002B4BD0013B5FFA83F882
:10D9E800FFF76CFC0190236B43F008032363236B60
:10D9F80068F3061323630198FFF764FCFFF75EFCE6
:10DA08000290236B6FF300032363236B6FF34923A7
:10DA18002363236B6FF3082323630298FFF752FCF9
:10DA280051493268CB68DBB2122B02D1B2F5612FB3
:10DA38001DD8CB68DBB2202B02D94C4B9A4216D8A2
:10DA4800236BC3F30213013BDBB2032B14D8484901
:10DA580051F82310120191424FEA8113B1FBF2F001
:10DA6800B3FBF2F3A3EB80130CD200232B664148DF
:10DA780005E04FF00108B3E700233F482B6604B0E8
:10DA8800BDE8F08160626062A3629B0803EB00134B
:10DA9800B1FBF3F12966236B6FF38E332363236B9A
:10DAA8006FF3CF3323633269236B134323637369A3
:10DAB800F268636373681343B268134343F0100357
:10DAC800E362FFF7FBFB0390236B43F0010323633F
:10DAD800236B43F400732363236B43F48073236342
:10DAE8000398FFF7EFFB2A6822F07E42BA42D6E994
:10DAF8000613D6E9084601D00020C0E7B1B1ABB1A2
:10DB0800012205F12C0085F82820FFF751FC20217F
:10DB18002846FFF71FFF0028EED17CB9002485F8BE
:10DB2800444050212846FFF729FFE5E7002385F800
:10DB3800283020212846FFF721FFECE7002EEDD002
:10DB48000122214605F1480085F844203346FFF7B5
:10DB58002FFC50212846FFF7FDFECDE702208EE777
:10DB680006208CE7069EEA010000024060E31600EA
:10DB780010EA000003000008020000080368074AD2
:10DB880023F07E43934201BF436A03F580231C338D
:10DB98001B0306BF0020596402207047069EEA0155
:10DBA8000368F7B51646314A23F07E43934205468B
:10DBB80056D1446A04F10807FFB221B1013901299D
:10DBC80027D9062023E016B10379002B4AD038461E
:10DBD800FFF77CFB002E47D004F58024FFF76EFB8F
:10DBE8001C342403AB6800902362EB6863622B69E2
:10DBF800A3626B69E362AB692363EB6963632B6AB6
:10DC0800A363002400982C71FFF75CFB204603B047
:10DC1800F0BD04F580241C342403AEB1FFF74EFB9D
:10DC28000190236AAB60636AEB60A36A2B61E36AC5
:10DC38006B61236BAB61636BEB61A36B2B6201239D
:10DC480001982B71FFF73EFB4FF0FF312846002566
:10DC5800FFF794FF25633846FFF76CFB2846D6E7A5
:10DC68000220D4E70720D2E73046D0E7069EEA0133
:10DC7800036810B5094C23F07E43A3420BD1436AD5
:10DC880003F580231C331B031AB11B6C0B600020A7
:10DC980010BDDB6BFAE70220FAE700BF069EEA0137
:10DCA8001FB5044601A8FFF74FF9019B40F6B832AB
:10DCB800B3FBF2F304FB03F0FFF792F904B010BDD5
:10DCC8001FB5044601A8FFF73FF9019B044AB3FBBF
:10DCD800F2F304FB03F0FFF783F904B010BD00BFB3
:10DCE800C0C62D0007B5002300931A4619461846EA
:10DCF80000F0CCFA03B05DF804FB000030B585B045
:10DD080000201546019300F0B3FA019B2A4612F849
:10DD1800014B8CB92A460B49204600F0CBF909ABD8
:10DD28000899039303AA204600F096F8064920466E
:10DD380000F09EFA05B030BD5C2C01D02F2CE6D146
:10DD48001546E4E720EA000028EA0000826810B5DA
:10DD580004464068531C834205D820688154A36058
:10DD6800E3680133E360D4E901329A420BD12168B8
:10DD7800206900F063FAA368984215BF4FF0FF339B
:10DD88000023E360A36010BD2DE9F84F9946DDE953
:10DD98000A431646054688460A464FF0010AB2422B
:10DDA80012D2CA4538BFCA4613F0010B01D184B953
:10DDB8000024EB68002B48DB0127B9F1010F1FD9BC
:10DDC80009F1FF397743F8E70AF1010AB2FBF6F2E5
:10DDD800E5E79B0712D5B9F1000F0CBF30272027C4
:10DDE800A245E6D239462846FFF7B0FFEB68002B7C
:10DDF80004F1FF34DDDB002CF2D1D9E72027EFE76F
:10DE0800B8FBF7F39E42DDD9DFF84890B8FBF7F38B
:10DE1800284619F8031007FB1388FFF797FFEB68EC
:10DE2800002B03DBB7FBF6F3B74210D2BBF1000FB0
:10DE38000BD054B1A24508D220212846FFF786FF0F
:10DE4800EB68002B04F1FF34F3DABDE8F88F1F46C6
:10DE5800DCE700BF2BEA00002DE9F04F9BB00AABCE
:10DE68000E46059340210023CDE90613CDE908307D
:10DE7800039015464FF00A0A16F8011B39B9089D98
:10DE8800002D00F30D8108981BB0BDE8F08F2529FF
:10DE980040F0B7804FF0000B07E0302B0FD14BF06C
:10DEA800020B01E04BF0010B0E46314611F8013B25
:10DEB8002D2BF7D0F1D8232B12D02B2B0DD00024EB
:10DEC800314611F8013BA3F1300009280BD80AFBB1
:10DED8000433A3F130040E46F2E74BF0040BE3E7FA
:10DEE8004BF0080BE0E72E2B0FD10E464FF0000940
:10DEF800304610F8011BA1F13007092F07D80AFB9B
:10DF08000911A1F130090646F2E74FF00009304641
:10DF180010F8011B01F0FB07682F0646F8D0782996
:10DF280009D86F290BD8632967D021D8252968D04B
:10DF3800582900F09580089B002B9DDA9FE77039DF
:10DF48000829F8D801A050F821F000BF99E0000096
:10DF58003FDF00003FDF000079E000003FDF000006
:10DF680057E000003FDF00003FDF000069E00000ED
:10DF78006429E0D129680F68081D87EAE7712860DD
:10DF8800A1EBE7714FF0010809293EDCC84538BF0D
:10DF9800C8462CB1002F02DB1BF0040F00D0013C57
:10DFA8001BF0020F02D0B9F1000F04D01BF0010FD3
:10DFB80001D17CBB002408990029BCDB002F35DA8D
:10DFC8007F422D2105A8FFF7C1FE08990029B2DB81
:10DFD8000BF00301022904D1B9F1000F01D154BBA0
:10DFE800002408990029A6DBCDE9004B4B460A22FC
:10DFF800394605A8FFF7C8FE9DE72B681A1D197852
:10E008002A6005A8FFF7A2FE95E708F10108B1FB11
:10E01800FAF1B9E7A045CED2202105A8FFF796FE70
:10E028000899002904F1FF34C3DAC4E71BF0040F90
:10E03800CBD02B21C6E7A045D3D2302105A8FFF7C6
:10E0480085FE0899002904F1FF34C8DAC9E7296870
:10E05800081D2860CDE9004B4B460A220968C8E72D
:10E068002968081D2860CDE9004B4B461022F5E7CA
:10E078002B681A1D2A601C6814F8011B00293FF43C
:10E088005AAF05A8FFF762FE089B002BF4DA52E7A7
:10E0980029680B1D2B6000220823CDE90032E5E733
:10E0A800079C24B1039822460AA900F0C7F82C441B
:10E0B8000894E8E60EB403B503AB01AA53F8041BB1
:10E0C8000193FFF7C9FE02B05DF804EB03B0704797
:10E0D800114B124903221A615A61114A9961DA6196
:10E0E8004FF480621A6200229A625A62DA621966F2
:10E0F8000C495966102199661A67DA665A67BFF3A0
:10E108005F8F094911F8010998540132102AF9D191
:10E11800BFF35F8F704700BF701500103BEA000027
:10E12800281600101816001053EA00000369C26888
:10E1380093429CBF81685B18013B981A70472DE990
:10E14800F041D0E902840546A8EB040640689642EF
:10E1580020440F46144406D900F090F9BFF35F8FAE
:10E16800EC60BDE8F0813246A4EB080400F086F9C3
:10E1780068682246B919EFE72DE9F843C5680646ED
:10E18800894617464FF000083369B46870689D42A5
:10E1980028BF1B19641BBC4203F1FF3328BF3C4650
:10E1A8005B1B9C4228BF1C4649462246284400F077
:10E1B80065F9B3682544A044A1443F1BAB4208BF9E
:10E1C8000025BFF35F8FF560002FDDD14046BDE825
:10E1D800F8830000F8B5184B182400FB044504FB2D
:10E1E80000300F46C46A012C16461D440FD0022C7D
:10E1F8001AD0F4B92846FFF799FF864205D8324667
:10E2080039462846FFF79BFF34462046F8BD284686
:10E21800FFF78CFF8642344628BF0446224639461B
:10E228002846FFF78CFFF0E72846BDE8F840FFF7DF
:10E23800A3BF0024E9E700BF7015001037B50B4BEA
:10E248001B780C462BB9CDE90002FFF741FFDDE949
:10E258000002EFF311854FF0200181F31188214668
:10E26800FFF7B8FF85F3118803B030BD70150010B3
:10E2780013B504460846019100F0D0F8019902460A
:10E28800204602B0BDE81040FFF7D8BF2DE9F041A5
:10E29800154C1E4623780546884617460BB9FFF7E6
:10E2A80017FF022D1DD8EFF3118C4FF0200181F3D9
:10E2B800118865B1182005FB0003E21844F80380B3
:10E2C800576000FB054200231662936253621823CD
:10E2D80003FB0540069BC3628CF311880020BDE850
:10E2E800F0814FF0FF30FAE770150010002B35D1A0
:10E2F80029B9B0FBF2FC0CFB120260467047914250
:10E3080015D22DE9F041B2FA82F39A409940D3F13F
:10E31800200C30FA0CFC51EA0C01984000F04EF841
:10E32800280036FA03F200210023BDE8F081F0B599
:10E33800B1FBF2FC0CFB1211B2FA82F39A4099403D
:10E34800D3F1200630FA06F63143984000F036F84B
:10E35800614628003200DA400023F0BDF3B5B3FA75
:10E3680083FC49085FEA300013FA0CF3DCF120045F
:10E3780032FA04F423430CB41A0000F01FF80CBC62
:10E3880033FA0CF3DCF11F0C35FA0CF518BF013D1C
:10E3980003BCA5FB026705FB0377801BB9419042CC
:10E3A80071EB030C05D3821A71EB0303681C00217F
:10E3B800F0BD02000B0028000021F0BD940D4FF6BF
:10E3C800C2752D02B5FBF4F4D60A013604FB04F538
:10E3D800A5FB0656F64306EB0416550832BF002780
:10E3E8007708013505FB1677A6FB07477F0807EB7B
:10E3F800C63714001500E7FB02457F1B4D1C0400BF
:10E40800E7FB014505FB1206A64284BF013DB6188D
:10E41800964224BF0135B61A704700BF411C8207D7
:10E428000CD010F8012B3AB3820707D010F8012B53
:10E4380012B3820702D010F8012BEAB14FF0013C69
:10E4480050F8042BCCFA52F37BB950F8042BCCFAD1
:10E4580052F353B950F8042BCCFA52F32BB950F8B5
:10E46800042BCCFA52F3002BEAD004381BBAB3FAC7
:10E4780083F300EBD3000130401A704772B384462F
:10E4880090EA01039B0721D1830709D011F8013BCA
:10E4980000F8013B013A20D08307F7D100E0844619
:10E4A800202A0AD32DE9F007B1E8F807A0E8F80711
:10E4B800203A202AF8D2BDE8F007042A06D351F8FA
:10E4C800043B40F8043B043A042AF8D22AB111F874
:10E4D800013B00F8013B013AF9D16046704700BFA3
:10E4E800072904D90023024AC0E9003110607047A7
:04E4F800281A0010CE
:10E4FC002F55736572732F7372636E6572742F442C
:10E50C0065736B746F702F41706F6C6C6F2F416DF6
:10E51C006269715F53444B2F6578616D706C6573E4
:10E52C002F61706F6C6C6F332F626F6F746C6F61D7
:10E53C006465725F72616B2F7372632F6D61696EAC
:10E54C002E63001B5B313B33326D0020464C415334
:10E55C004820657261736520706167652061742065
:10E56C003078253038782069333252657475726E84
:10E57C00436F6465203D2020307825782E00446F51
:10E58C006E652E0009096672616D655F6164647267
:10E59C00657373203D203078253038582C206E75EB
:10E5AC006D5F776F726473203D2025640A0045729D
:10E5BC00726F723A206672616D65207061636B6573
:10E5CC0074206E6F7420696E7465676572206D754A
:10E5DC006C7469706C65206F6620776F7264732041
:10E5EC0028342062797465732070657220776F729D
:10E5FC0064290A00464C4153485F4D4153535F45D3
:10E60C00524153452069333252657475726E436FB3
:10E61C006465203D20307825782E0A0D00464C414B
:10E62C0053485F5752495445206572726F72203DB2
:10E63C0020307825782E0A0D0070686173653A09D0
:10E64C00626F6F746C6F61640A0009726571756535
:10E65C007374696E672072657472616E736D697321
:10E66C0073696F6E0A000972657175657374696EF2
:10E67C0067206E65787420617070206672616D65BC
:10E68C000A0009096572726F72207265636569769A
:10E69C00696E67207061636B657420282564290A94
:10E6AC00000909726563656976656420616E206195
:10E6BC007070206672616D650A0009097265636588
:10E6CC006976656420646F6E65207369676E616C32
:10E6DC00210A0A00626F6F746C6F6164206572723C
:10E6EC006F72202D20756E6B6E6F776E20636F6D61
:10E6FC006D616E640A000A4A756D7020746F20415A
:10E70C007070206174203078253038580A0A000A5D
:10E71C000A417274656D69732053564C20426F6FB9
:10E72C00746C6F61646572202D2044454255470A14
:10E73C000A0070686173653A09636F6E6669726D81
:10E74C0020626F6F746C6F6164696E6720656E74A4
:10E75C0072790A000973656E64696E672041727480
:10E76C00656D69732053564C2076657273696F6EB4
:10E77C00207061636B65740A000977616974696E56
:10E78C006720666F7220626F6F746C6F6164657264
:10E79C0020636F6E6669726D6174696F6E0A000931
:10E7AC006E6F20636F6E6669726D6174696F6E2037
:10E7BC0072656365697665640A0009656E746572D5
:10E7CC00696E6720626F6F746C6F616465720A0AA0
:10E7DC00004552524F52202D2072756E6F666600A6
:10E7EC0004000000600C0010000800080803000181
:10E7FC000180028001018001018080808080808006
:10E80C008080800880808080018001808080808072
:10E81C0080808002048001010401018080808001DD
:10E82C000123232762A1038710035300E151814187
:10E83C005505C4804001B140411431A03100F18034
:10E84C00119121C111E511453037003031007100B3
:10E85C004030313242521302122260334353213082
:10E86C0040502031415111FFFFFFFFFFFFFFFF31EF
:10E87C0041516030405000334353233242526000C8
:10E88C0010203030405061314151010212224203BC
:10E89C001323600010205001112141021222320377
:10E8AC00133360314151213242522233435303001E
:10E8BC001020400111215132425202334353133084
:10E8CC0040501031415160324252123343530300D5
:10E8DC001020400111216102122252031323330034
:10E8EC00102030314151613242520203133353FF35
:10E8FC00FFFFFFFFFFFFFF011121610010205001FE
:10E90C0011216102122252334353133040506101E2
:10E91C00112131021222320313234307070702028B
:10E92C0008080002020201010101010101010101BB
:10E93C0001010101010101010101010101010101BB
:10E94C0001010808000101010101010101000000A1
:10E95C0000000000000000000000000001000000AA
:10E96C000400000004000000020000000800000089
:10E97C00080000000400000008000000080000006F
:10E98C000800000008000000080000001000000053
:10E99C00100000001000000020000000100000001B
:10E9AC0010000000400000001000000010000000EB
:10E9BC0080000000040000000400000000010000C2
:10E9CC000400000004000000000200002000000011
:10E9DC0020000000000400000400000004000000FF
:10E9EC000008000040000000400000000010000083
:10E9FC0080000000800000000020000000010000EA
:10EA0C000001000000366E01001BB700808D5B001A
:10EA1C00C0C62D0025733A25640909000D0A003083
:10EA2C003132333435363738394142434445465414
:10EA3C0065726D696E616C0000000000000054543A
:09EA4C0052205245474745530092
:10EA580000800F0001050000020000000000000017
:10EA68000000000001000000050000100100010086
:10EA7800000005800F800A001B801E001400118012
:10EA8800338036003C00398028002D802780220002
:10EA9800638066006C00698078007D8077807200F2
:10EAA800500055805F805A004B804E0044004180E2
:10EAB800C380C600CC00C980D800DD80D780D200D2
:10EAC800F000F580FF80FA00EB80EE00E400E180C2
:10EAD800A000A580AF80AA00BB80BE00B400B180B2
:10EAE800938096009C00998088008D8087808200A2
:10EAF800838186018C01898198019D81978192018A
:10EB0800B001B581BF81BA01AB81AE01A401A18179
:10EB1800E001E581EF81EA01FB81FE01F401F18169
:10EB2800D381D601DC01D981C801CD81C781C20159
:10EB3800400145814F814A015B815E015401518149
:10EB4800738176017C01798168016D816781620139
:10EB5800238126012C01298138013D813781320129
:10EB6800100115811F811A010B810E010401018119
:10EB7800038306030C03098318031D8317831203F9
:10EB8800300335833F833A032B832E0324032183E9
:10EB9800600365836F836A037B837E0374037183D9
:10EBA800538356035C03598348034D8347834203C9
:10EBB800C003C583CF83CA03DB83DE03D403D183B9
:10EBC800F383F603FC03F983E803ED83E783E203A9
:10EBD800A383A603AC03A983B803BD83B783B20399
:10EBE800900395839F839A038B838E038403818389
:10EBF800800285828F828A029B829E029402918281
:10EC0800B382B602BC02B982A802AD82A782A20270
:10EC1800E382E602EC02E982F802FD82F782F20260
:10EC2800D002D582DF82DA02CB82CE02C402C18250
:10EC3800438246024C02498258025D825782520240
:10EC4800700275827F827A026B826E026402618230
:10EC5800200225822F822A023B823E023402318220
:10EC6800138216021C02198208020D820782020210
:0CEC7800016000BF006800BF704700BFD3
:040000030000C265D2
:00000001FF
